{
  "_format": "hh-sol-artifact-1",
  "contractName": "TriSphereTreasury",
  "sourceName": "src/TriSphereTreasury.sol",
  "abi": [
    {
      "inputs": [
        {
          "internalType": "address",
          "name": "initialOwner",
          "type": "address"
        }
      ],
      "stateMutability": "nonpayable",
      "type": "constructor"
    },
    {
      "inputs": [
        {
          "internalType": "address",
          "name": "owner",
          "type": "address"
        }
      ],
      "name": "OwnableInvalidOwner",
      "type": "error"
    },
    {
      "inputs": [
        {
          "internalType": "address",
          "name": "account",
          "type": "address"
        }
      ],
      "name": "OwnableUnauthorizedAccount",
      "type": "error"
    },
    {
      "inputs": [
        {
          "internalType": "address",
          "name": "token",
          "type": "address"
        }
      ],
      "name": "SafeERC20FailedOperation",
      "type": "error"
    },
    {
      "anonymous": false,
      "inputs": [
        {
          "indexed": true,
          "internalType": "address",
          "name": "previousOwner",
          "type": "address"
        },
        {
          "indexed": true,
          "internalType": "address",
          "name": "newOwner",
          "type": "address"
        }
      ],
      "name": "OwnershipTransferred",
      "type": "event"
    },
    {
      "anonymous": false,
      "inputs": [
        {
          "indexed": true,
          "internalType": "address",
          "name": "token",
          "type": "address"
        },
        {
          "indexed": true,
          "internalType": "address",
          "name": "from",
          "type": "address"
        },
        {
          "indexed": false,
          "internalType": "uint256",
          "name": "amount",
          "type": "uint256"
        },
        {
          "indexed": true,
          "internalType": "bytes32",
          "name": "escrowId",
          "type": "bytes32"
        }
      ],
      "name": "RevenueReceived",
      "type": "event"
    },
    {
      "inputs": [
        {
          "internalType": "address",
          "name": "token",
          "type": "address"
        },
        {
          "internalType": "uint256",
          "name": "amount",
          "type": "uint256"
        },
        {
          "internalType": "bytes32",
          "name": "escrowId",
          "type": "bytes32"
        }
      ],
      "name": "depositFee",
      "outputs": [],
      "stateMutability": "nonpayable",
      "type": "function"
    },
    {
      "inputs": [],
      "name": "owner",
      "outputs": [
        {
          "internalType": "address",
          "name": "",
          "type": "address"
        }
      ],
      "stateMutability": "view",
      "type": "function"
    },
    {
      "inputs": [],
      "name": "renounceOwnership",
      "outputs": [],
      "stateMutability": "nonpayable",
      "type": "function"
    },
    {
      "inputs": [
        {
          "internalType": "address",
          "name": "newOwner",
          "type": "address"
        }
      ],
      "name": "transferOwnership",
      "outputs": [],
      "stateMutability": "nonpayable",
      "type": "function"
    },
    {
      "inputs": [
        {
          "internalType": "address",
          "name": "token",
          "type": "address"
        },
        {
          "internalType": "address",
          "name": "to",
          "type": "address"
        },
        {
          "internalType": "uint256",
          "name": "amount",
          "type": "uint256"
        }
      ],
      "name": "withdraw",
      "outputs": [],
      "stateMutability": "nonpayable",
      "type": "function"
    }
  ],
  "bytecode": "0x608060405234801561001057600080fd5b5060405161054438038061054483398101604081905261002f916100be565b806001600160a01b03811661005e57604051631e4fbdf760e01b81526000600482015260240160405180910390fd5b6100678161006e565b50506100ee565b600080546001600160a01b038381166001600160a01b0319831681178455604051919092169283917f8be0079c531659141344cd1fd0a4f28419497f9722a3daafe3b4186f6b6457e09190a35050565b6000602082840312156100d057600080fd5b81516001600160a01b03811681146100e757600080fd5b9392505050565b610447806100fd6000396000f3fe608060405234801561001057600080fd5b50600436106100575760003560e01c8063332c04501461005c578063715018a6146100715780638da5cb5b14610079578063d9caed1214610098578063f2fde38b146100ab575b600080fd5b61006f61006a366004610380565b6100be565b005b61006f610126565b600054604080516001600160a01b039092168252519081900360200190f35b61006f6100a63660046103b3565b61013a565b61006f6100b93660046103ef565b61015b565b6100d36001600160a01b03841633308561019e565b80336001600160a01b0316846001600160a01b03167f6695a1aec91b4d905232b86b5eb1ad9c3c671de064ac0aaa8daf2b88f765c3e68560405161011991815260200190565b60405180910390a4505050565b61012e6101da565b6101386000610207565b565b6101426101da565b6101566001600160a01b0384168383610257565b505050565b6101636101da565b6001600160a01b03811661019257604051631e4fbdf760e01b8152600060048201526024015b60405180910390fd5b61019b81610207565b50565b6101ac84848484600161028c565b6101d457604051635274afe760e01b81526001600160a01b0385166004820152602401610189565b50505050565b6000546001600160a01b031633146101385760405163118cdaa760e01b8152336004820152602401610189565b600080546001600160a01b038381166001600160a01b0319831681178455604051919092169283917f8be0079c531659141344cd1fd0a4f28419497f9722a3daafe3b4186f6b6457e09190a35050565b61026483838360016102fe565b61015657604051635274afe760e01b81526001600160a01b0384166004820152602401610189565b6040516323b872dd60e01b60008181526001600160a01b038781166004528616602452604485905291602083606481808c5af1925060016000511483166102ec5783831516156102df573d6000823e3d81fd5b6000883b113d1516831692505b60405250600060605295945050505050565b60405163a9059cbb60e01b60008181526001600160a01b038616600452602485905291602083604481808b5af19250600160005114831661035857838315161561034b573d6000823e3d81fd5b6000873b113d1516831692505b60405250949350505050565b80356001600160a01b038116811461037b57600080fd5b919050565b60008060006060848603121561039557600080fd5b61039e84610364565b95602085013595506040909401359392505050565b6000806000606084860312156103c857600080fd5b6103d184610364565b92506103df60208501610364565b9150604084013590509250925092565b60006020828403121561040157600080fd5b61040a82610364565b939250505056fea264697066735822122049a9fc5d166661ae3681838d0bc7f507ab8ea4da67ee8d579a8844a21ad9acbf64736f6c63430008180033",
  "linkReferences": {},
  "deployedLinkReferences": {}
}