{
  "_format": "hh-sol-artifact-1",
  "contractName": "TriSphereReputation",
  "sourceName": "src/TriSphereReputation.sol",
  "abi": [
    {
      "inputs": [
        {
          "internalType": "address",
          "name": "initialOwner",
          "type": "address"
        }
      ],
      "stateMutability": "nonpayable",
      "type": "constructor"
    },
    {
      "inputs": [
        {
          "internalType": "address",
          "name": "owner",
          "type": "address"
        }
      ],
      "name": "OwnableInvalidOwner",
      "type": "error"
    },
    {
      "inputs": [
        {
          "internalType": "address",
          "name": "account",
          "type": "address"
        }
      ],
      "name": "OwnableUnauthorizedAccount",
      "type": "error"
    },
    {
      "anonymous": false,
      "inputs": [
        {
          "indexed": true,
          "internalType": "address",
          "name": "previousOwner",
          "type": "address"
        },
        {
          "indexed": true,
          "internalType": "address",
          "name": "newOwner",
          "type": "address"
        }
      ],
      "name": "OwnershipTransferred",
      "type": "event"
    },
    {
      "anonymous": false,
      "inputs": [
        {
          "indexed": true,
          "internalType": "address",
          "name": "user",
          "type": "address"
        },
        {
          "indexed": true,
          "internalType": "bytes32",
          "name": "metricKey",
          "type": "bytes32"
        },
        {
          "indexed": false,
          "internalType": "uint256",
          "name": "newValue",
          "type": "uint256"
        },
        {
          "indexed": false,
          "internalType": "int256",
          "name": "delta",
          "type": "int256"
        }
      ],
      "name": "ReputationUpdated",
      "type": "event"
    },
    {
      "inputs": [
        {
          "internalType": "address",
          "name": "",
          "type": "address"
        },
        {
          "internalType": "bytes32",
          "name": "",
          "type": "bytes32"
        }
      ],
      "name": "metric",
      "outputs": [
        {
          "internalType": "uint256",
          "name": "",
          "type": "uint256"
        }
      ],
      "stateMutability": "view",
      "type": "function"
    },
    {
      "inputs": [],
      "name": "owner",
      "outputs": [
        {
          "internalType": "address",
          "name": "",
          "type": "address"
        }
      ],
      "stateMutability": "view",
      "type": "function"
    },
    {
      "inputs": [
        {
          "internalType": "address",
          "name": "user",
          "type": "address"
        },
        {
          "internalType": "bytes32",
          "name": "metricKey",
          "type": "bytes32"
        },
        {
          "internalType": "uint256",
          "name": "delta",
          "type": "uint256"
        }
      ],
      "name": "record",
      "outputs": [],
      "stateMutability": "nonpayable",
      "type": "function"
    },
    {
      "inputs": [
        {
          "internalType": "address",
          "name": "",
          "type": "address"
        }
      ],
      "name": "registrars",
      "outputs": [
        {
          "internalType": "bool",
          "name": "",
          "type": "bool"
        }
      ],
      "stateMutability": "view",
      "type": "function"
    },
    {
      "inputs": [],
      "name": "renounceOwnership",
      "outputs": [],
      "stateMutability": "nonpayable",
      "type": "function"
    },
    {
      "inputs": [
        {
          "internalType": "address",
          "name": "account",
          "type": "address"
        },
        {
          "internalType": "bool",
          "name": "allowed",
          "type": "bool"
        }
      ],
      "name": "setRegistrar",
      "outputs": [],
      "stateMutability": "nonpayable",
      "type": "function"
    },
    {
      "inputs": [
        {
          "internalType": "address",
          "name": "",
          "type": "address"
        }
      ],
      "name": "totalScore",
      "outputs": [
        {
          "internalType": "uint256",
          "name": "",
          "type": "uint256"
        }
      ],
      "stateMutability": "view",
      "type": "function"
    },
    {
      "inputs": [
        {
          "internalType": "address",
          "name": "newOwner",
          "type": "address"
        }
      ],
      "name": "transferOwnership",
      "outputs": [],
      "stateMutability": "nonpayable",
      "type": "function"
    }
  ],
  "bytecode": "0x608060405234801561001057600080fd5b506040516105e03803806105e083398101604081905261002f916100be565b806001600160a01b03811661005e57604051631e4fbdf760e01b81526000600482015260240160405180910390fd5b6100678161006e565b50506100ee565b600080546001600160a01b038381166001600160a01b0319831681178455604051919092169283917f8be0079c531659141344cd1fd0a4f28419497f9722a3daafe3b4186f6b6457e09190a35050565b6000602082840312156100d057600080fd5b81516001600160a01b03811681146100e757600080fd5b9392505050565b6104e3806100fd6000396000f3fe608060405234801561001057600080fd5b50600436106100885760003560e01c80638da5cb5b1161005b5780638da5cb5b14610128578063ad33933614610143578063c1bf1dcf14610156578063f2fde38b1461016957600080fd5b806353e591561461008d578063715018a6146100cb57806384eda662146100d557806389aeca76146100f5575b600080fd5b6100b861009b3660046103cb565b600260209081526000928352604080842090915290825290205481565b6040519081526020015b60405180910390f35b6100d361017c565b005b6100b86100e33660046103f5565b60016020526000908152604090205481565b6101186101033660046103f5565b60036020526000908152604090205460ff1681565b60405190151581526020016100c2565b6000546040516001600160a01b0390911681526020016100c2565b6100d3610151366004610417565b610190565b6100d361016436600461044a565b6102c1565b6100d36101773660046103f5565b6102f4565b610184610332565b61018e600061035f565b565b6000546001600160a01b03163314806101b857503360009081526003602052604090205460ff165b6101f95760405162461bcd60e51b815260206004820152600d60248201526c2737ba103932b3b4b9ba3930b960991b60448201526064015b60405180910390fd5b6001600160a01b03831660009081526002602090815260408083208584529091528120805483929061022c908490610486565b90915550506001600160a01b03831660009081526001602052604081208054839290610259908490610486565b90915550506001600160a01b03831660008181526002602090815260408083208684528252918290205482519081529081018490528492917fde6aa3749cbb3f0e60af0af0d3bc324c79bfaa80e303ed0dd79413beea0e92b0910160405180910390a3505050565b6102c9610332565b6001600160a01b03919091166000908152600360205260409020805460ff1916911515919091179055565b6102fc610332565b6001600160a01b03811661032657604051631e4fbdf760e01b8152600060048201526024016101f0565b61032f8161035f565b50565b6000546001600160a01b0316331461018e5760405163118cdaa760e01b81523360048201526024016101f0565b600080546001600160a01b038381166001600160a01b0319831681178455604051919092169283917f8be0079c531659141344cd1fd0a4f28419497f9722a3daafe3b4186f6b6457e09190a35050565b80356001600160a01b03811681146103c657600080fd5b919050565b600080604083850312156103de57600080fd5b6103e7836103af565b946020939093013593505050565b60006020828403121561040757600080fd5b610410826103af565b9392505050565b60008060006060848603121561042c57600080fd5b610435846103af565b95602085013595506040909401359392505050565b6000806040838503121561045d57600080fd5b610466836103af565b91506020830135801515811461047b57600080fd5b809150509250929050565b808201808211156104a757634e487b7160e01b600052601160045260246000fd5b9291505056fea26469706673582212207131dc072dc47342cab7d757195dd52b5017a60e160d3906909a8ac888b3b16f64736f6c63430008180033",
  "linkReferences": {},
  "deployedLinkReferences": {}
}