{
  "_format": "hh-sol-artifact-1",
  "contractName": "KHCRegistry",
  "sourceName": "contracts/KHCRegistry.sol",
  "abi": [
    {
      "inputs": [],
      "stateMutability": "nonpayable",
      "type": "constructor"
    },
    {
      "anonymous": false,
      "inputs": [
        {
          "indexed": true,
          "internalType": "string",
          "name": "businessId",
          "type": "string"
        },
        {
          "indexed": false,
          "internalType": "string",
          "name": "companyName",
          "type": "string"
        },
        {
          "indexed": false,
          "internalType": "string",
          "name": "sector",
          "type": "string"
        },
        {
          "indexed": false,
          "internalType": "uint256",
          "name": "score",
          "type": "uint256"
        },
        {
          "indexed": false,
          "internalType": "string",
          "name": "profileHash",
          "type": "string"
        },
        {
          "indexed": false,
          "internalType": "uint256",
          "name": "validationDate",
          "type": "uint256"
        }
      ],
      "name": "ChampionVerified",
      "type": "event"
    },
    {
      "inputs": [
        {
          "internalType": "uint256",
          "name": "index",
          "type": "uint256"
        }
      ],
      "name": "getBusinessIdAtIndex",
      "outputs": [
        {
          "internalType": "string",
          "name": "",
          "type": "string"
        }
      ],
      "stateMutability": "view",
      "type": "function"
    },
    {
      "inputs": [
        {
          "internalType": "string",
          "name": "businessId",
          "type": "string"
        }
      ],
      "name": "getChampion",
      "outputs": [
        {
          "internalType": "string",
          "name": "companyName",
          "type": "string"
        },
        {
          "internalType": "string",
          "name": "sector",
          "type": "string"
        },
        {
          "internalType": "uint256",
          "name": "validationDate",
          "type": "uint256"
        },
        {
          "internalType": "uint256",
          "name": "score",
          "type": "uint256"
        },
        {
          "internalType": "string",
          "name": "profileHash",
          "type": "string"
        },
        {
          "internalType": "bool",
          "name": "isVerified",
          "type": "bool"
        }
      ],
      "stateMutability": "view",
      "type": "function"
    },
    {
      "inputs": [],
      "name": "getVerifiedChampionsCount",
      "outputs": [
        {
          "internalType": "uint256",
          "name": "",
          "type": "uint256"
        }
      ],
      "stateMutability": "view",
      "type": "function"
    },
    {
      "inputs": [],
      "name": "owner",
      "outputs": [
        {
          "internalType": "address",
          "name": "",
          "type": "address"
        }
      ],
      "stateMutability": "view",
      "type": "function"
    },
    {
      "inputs": [
        {
          "internalType": "string",
          "name": "businessId",
          "type": "string"
        },
        {
          "internalType": "string",
          "name": "companyName",
          "type": "string"
        },
        {
          "internalType": "string",
          "name": "sector",
          "type": "string"
        },
        {
          "internalType": "uint256",
          "name": "score",
          "type": "uint256"
        },
        {
          "internalType": "string",
          "name": "profileHash",
          "type": "string"
        }
      ],
      "name": "verifyChampion",
      "outputs": [],
      "stateMutability": "nonpayable",
      "type": "function"
    }
  ],
  "bytecode": "0x608060405234801561001057600080fd5b50600280546001600160a01b03191633179055610d23806100326000396000f3fe608060405234801561001057600080fd5b50600436106100575760003560e01c806357052b8f1461005c57806366d26a2e146100725780638da5cb5b146100925780639a6a5267146100bd578063bc9138c3146100d2575b600080fd5b6001546040519081526020015b60405180910390f35b6100856100803660046107f5565b6100f7565b6040516100699190610854565b6002546100a5906001600160a01b031681565b6040516001600160a01b039091168152602001610069565b6100d06100cb3660046108b7565b6101fd565b005b6100e56100e0366004610987565b6105b3565b604051610069969594939291906109c9565b60015460609082106101505760405162461bcd60e51b815260206004820181905260248201527f4b484352656769737472793a20696e646578206f7574206f6620626f756e647360448201526064015b60405180910390fd5b6001828154811061016357610163610a24565b90600052602060002001805461017890610a3a565b80601f01602080910402602001604051908101604052809291908181526020018280546101a490610a3a565b80156101f15780601f106101c6576101008083540402835291602001916101f1565b820191906000526020600020905b8154815290600101906020018083116101d457829003601f168201915b50505050509050919050565b6002546001600160a01b031633146102635760405162461bcd60e51b8152602060048201526024808201527f4b484352656769737472793a2063616c6c6572206973206e6f7420746865206f6044820152633bb732b960e11b6064820152608401610147565b876102c05760405162461bcd60e51b815260206004820152602760248201527f4b484352656769737472793a20627573696e65737349642063616e6e6f7420626044820152666520656d70747960c81b6064820152608401610147565b8561031e5760405162461bcd60e51b815260206004820152602860248201527f4b484352656769737472793a20636f6d70616e794e616d652063616e6e6f7420604482015267626520656d70747960c01b6064820152608401610147565b60648311156103845760405162461bcd60e51b815260206004820152602c60248201527f4b484352656769737472793a2073636f7265206d75737420626520626574776560448201526b0656e203020616e64203130360a41b6064820152608401610147565b60008989604051610396929190610a74565b9081526040519081900360200190206005015460ff166103ee576001805480820182556000919091527fb10e2d527612073b26eecdfd717e6a320cf44b4afac2b0732d9fcbe2b7fa0cf6016103ec898b83610aeb565b505b6040518060c0016040528088888080601f016020809104026020016040519081016040528093929190818152602001838380828437600092019190915250505090825250604080516020601f8901819004810282018101909252878152918101919088908890819084018382808284376000920191909152505050908252504260208083019190915260408083018790528051601f86018390048302810183019091528481526060909201919085908590819084018382808284376000920182905250938552505060016020909301929092526040519091506104d4908c908c90610a74565b908152604051908190036020019020815181906104f19082610bac565b50602082015160018201906105069082610bac565b5060408201516002820155606082015160038201556080820151600482019061052f9082610bac565b5060a091909101516005909101805460ff191691151591909117905560405161055b908a908a90610a74565b60405180910390207f0c176485ae0a3d47a7279605f7a13808363946987ed3eb1b8d0b1aecb8bfa66c88888888888888426040516105a0989796959493929190610c95565b60405180910390a2505050505050505050565b6060806000806060600080600089896040516105d0929190610a74565b90815260200160405180910390206040518060c00160405290816000820180546105f990610a3a565b80601f016020809104026020016040519081016040528092919081815260200182805461062590610a3a565b80156106725780601f1061064757610100808354040283529160200191610672565b820191906000526020600020905b81548152906001019060200180831161065557829003601f168201915b5050505050815260200160018201805461068b90610a3a565b80601f01602080910402602001604051908101604052809291908181526020018280546106b790610a3a565b80156107045780601f106106d957610100808354040283529160200191610704565b820191906000526020600020905b8154815290600101906020018083116106e757829003601f168201915b50505050508152602001600282015481526020016003820154815260200160048201805461073190610a3a565b80601f016020809104026020016040519081016040528092919081815260200182805461075d90610a3a565b80156107aa5780601f1061077f576101008083540402835291602001916107aa565b820191906000526020600020905b81548152906001019060200180831161078d57829003601f168201915b50505091835250506005919091015460ff16151560209182015281519082015160408301516060840151608085015160a090950151939e929d50909b50995091975095509350505050565b60006020828403121561080757600080fd5b5035919050565b6000815180845260005b8181101561083457602081850181015186830182015201610818565b506000602082860101526020601f19601f83011685010191505092915050565b602081526000610867602083018461080e565b9392505050565b60008083601f84011261088057600080fd5b50813567ffffffffffffffff81111561089857600080fd5b6020830191508360208285010111156108b057600080fd5b9250929050565b600080600080600080600080600060a08a8c0312156108d557600080fd5b893567ffffffffffffffff808211156108ed57600080fd5b6108f98d838e0161086e565b909b50995060208c013591508082111561091257600080fd5b61091e8d838e0161086e565b909950975060408c013591508082111561093757600080fd5b6109438d838e0161086e565b909750955060608c0135945060808c013591508082111561096357600080fd5b506109708c828d0161086e565b915080935050809150509295985092959850929598565b6000806020838503121561099a57600080fd5b823567ffffffffffffffff8111156109b157600080fd5b6109bd8582860161086e565b90969095509350505050565b60c0815260006109dc60c083018961080e565b82810360208401526109ee818961080e565b90508660408401528560608401528281036080840152610a0e818661080e565b91505082151560a0830152979650505050505050565b634e487b7160e01b600052603260045260246000fd5b600181811c90821680610a4e57607f821691505b602082108103610a6e57634e487b7160e01b600052602260045260246000fd5b50919050565b8183823760009101908152919050565b634e487b7160e01b600052604160045260246000fd5b601f821115610ae6576000816000526020600020601f850160051c81016020861015610ac35750805b601f850160051c820191505b81811015610ae257828155600101610acf565b5050505b505050565b67ffffffffffffffff831115610b0357610b03610a84565b610b1783610b118354610a3a565b83610a9a565b6000601f841160018114610b4b5760008515610b335750838201355b600019600387901b1c1916600186901b178355610ba5565b600083815260209020601f19861690835b82811015610b7c5786850135825560209485019460019092019101610b5c565b5086821015610b995760001960f88860031b161c19848701351681555b505060018560011b0183555b5050505050565b815167ffffffffffffffff811115610bc657610bc6610a84565b610bda81610bd48454610a3a565b84610a9a565b602080601f831160018114610c0f5760008415610bf75750858301515b600019600386901b1c1916600185901b178555610ae2565b600085815260208120601f198616915b82811015610c3e57888601518255948401946001909101908401610c1f565b5085821015610c5c5787850151600019600388901b60f8161c191681555b5050505050600190811b01905550565b81835281816020850137506000828201602090810191909152601f909101601f19169091010190565b60a081526000610ca960a083018a8c610c6c565b8281036020840152610cbc81898b610c6c565b90508660408401528281036060840152610cd7818688610c6c565b915050826080830152999850505050505050505056fea264697066735822122036447a55201b8f4c3cb22eef8ed3a0ca60fe93d1edafd97a1eb7cef15302d60864736f6c63430008180033",
  "linkReferences": {},
  "deployedLinkReferences": {}
}