{
  "_format": "hh-sol-artifact-1",
  "contractName": "PaymentEscrow",
  "sourceName": "src/PaymentEscrow.sol",
  "abi": [
    {
      "inputs": [
        {
          "internalType": "contract TriSphereTreasury",
          "name": "_treasury",
          "type": "address"
        },
        {
          "internalType": "contract TriSphereReputation",
          "name": "_reputation",
          "type": "address"
        },
        {
          "internalType": "uint256",
          "name": "_platformFeeBps",
          "type": "uint256"
        }
      ],
      "stateMutability": "nonpayable",
      "type": "constructor"
    },
    {
      "inputs": [],
      "name": "InvalidAddress",
      "type": "error"
    },
    {
      "inputs": [],
      "name": "InvalidAmount",
      "type": "error"
    },
    {
      "inputs": [
        {
          "internalType": "enum PaymentEscrow.Status",
          "name": "current",
          "type": "uint8"
        },
        {
          "internalType": "enum PaymentEscrow.Status",
          "name": "required",
          "type": "uint8"
        }
      ],
      "name": "InvalidStatus",
      "type": "error"
    },
    {
      "inputs": [
        {
          "internalType": "address",
          "name": "caller",
          "type": "address"
        }
      ],
      "name": "NotParticipant",
      "type": "error"
    },
    {
      "inputs": [],
      "name": "ReentrancyGuardReentrantCall",
      "type": "error"
    },
    {
      "inputs": [
        {
          "internalType": "address",
          "name": "token",
          "type": "address"
        }
      ],
      "name": "SafeERC20FailedOperation",
      "type": "error"
    },
    {
      "anonymous": false,
      "inputs": [
        {
          "indexed": true,
          "internalType": "uint256",
          "name": "id",
          "type": "uint256"
        }
      ],
      "name": "EscrowCancelled",
      "type": "event"
    },
    {
      "anonymous": false,
      "inputs": [
        {
          "indexed": true,
          "internalType": "uint256",
          "name": "id",
          "type": "uint256"
        },
        {
          "indexed": true,
          "internalType": "address",
          "name": "payer",
          "type": "address"
        },
        {
          "indexed": true,
          "internalType": "address",
          "name": "payee",
          "type": "address"
        },
        {
          "indexed": false,
          "internalType": "uint256",
          "name": "amount",
          "type": "uint256"
        }
      ],
      "name": "EscrowCreated",
      "type": "event"
    },
    {
      "anonymous": false,
      "inputs": [
        {
          "indexed": true,
          "internalType": "uint256",
          "name": "id",
          "type": "uint256"
        },
        {
          "indexed": true,
          "internalType": "address",
          "name": "payer",
          "type": "address"
        },
        {
          "indexed": false,
          "internalType": "uint256",
          "name": "amount",
          "type": "uint256"
        }
      ],
      "name": "EscrowFunded",
      "type": "event"
    },
    {
      "anonymous": false,
      "inputs": [
        {
          "indexed": true,
          "internalType": "uint256",
          "name": "id",
          "type": "uint256"
        },
        {
          "indexed": true,
          "internalType": "address",
          "name": "payer",
          "type": "address"
        },
        {
          "indexed": false,
          "internalType": "uint256",
          "name": "amount",
          "type": "uint256"
        }
      ],
      "name": "EscrowRefunded",
      "type": "event"
    },
    {
      "anonymous": false,
      "inputs": [
        {
          "indexed": true,
          "internalType": "uint256",
          "name": "id",
          "type": "uint256"
        },
        {
          "indexed": true,
          "internalType": "address",
          "name": "payee",
          "type": "address"
        },
        {
          "indexed": false,
          "internalType": "uint256",
          "name": "payeeAmount",
          "type": "uint256"
        },
        {
          "indexed": false,
          "internalType": "uint256",
          "name": "feeAmount",
          "type": "uint256"
        }
      ],
      "name": "FundsReleased",
      "type": "event"
    },
    {
      "anonymous": false,
      "inputs": [
        {
          "indexed": true,
          "internalType": "uint256",
          "name": "id",
          "type": "uint256"
        },
        {
          "indexed": true,
          "internalType": "address",
          "name": "payer",
          "type": "address"
        }
      ],
      "name": "MilestoneApproved",
      "type": "event"
    },
    {
      "inputs": [
        {
          "internalType": "uint256",
          "name": "id",
          "type": "uint256"
        }
      ],
      "name": "approveMilestone",
      "outputs": [],
      "stateMutability": "nonpayable",
      "type": "function"
    },
    {
      "inputs": [
        {
          "internalType": "uint256",
          "name": "id",
          "type": "uint256"
        }
      ],
      "name": "cancel",
      "outputs": [],
      "stateMutability": "nonpayable",
      "type": "function"
    },
    {
      "inputs": [
        {
          "internalType": "address",
          "name": "payee",
          "type": "address"
        },
        {
          "internalType": "address",
          "name": "token",
          "type": "address"
        },
        {
          "internalType": "uint256",
          "name": "amount",
          "type": "uint256"
        },
        {
          "internalType": "string",
          "name": "description",
          "type": "string"
        }
      ],
      "name": "createEscrow",
      "outputs": [
        {
          "internalType": "uint256",
          "name": "id",
          "type": "uint256"
        }
      ],
      "stateMutability": "nonpayable",
      "type": "function"
    },
    {
      "inputs": [
        {
          "internalType": "uint256",
          "name": "",
          "type": "uint256"
        }
      ],
      "name": "escrows",
      "outputs": [
        {
          "internalType": "address",
          "name": "payer",
          "type": "address"
        },
        {
          "internalType": "address",
          "name": "payee",
          "type": "address"
        },
        {
          "internalType": "address",
          "name": "token",
          "type": "address"
        },
        {
          "internalType": "uint256",
          "name": "amount",
          "type": "uint256"
        },
        {
          "internalType": "string",
          "name": "description",
          "type": "string"
        },
        {
          "internalType": "enum PaymentEscrow.Status",
          "name": "status",
          "type": "uint8"
        }
      ],
      "stateMutability": "view",
      "type": "function"
    },
    {
      "inputs": [
        {
          "internalType": "uint256",
          "name": "id",
          "type": "uint256"
        }
      ],
      "name": "fundEscrow",
      "outputs": [],
      "stateMutability": "nonpayable",
      "type": "function"
    },
    {
      "inputs": [],
      "name": "nextId",
      "outputs": [
        {
          "internalType": "uint256",
          "name": "",
          "type": "uint256"
        }
      ],
      "stateMutability": "view",
      "type": "function"
    },
    {
      "inputs": [],
      "name": "platformFeeBps",
      "outputs": [
        {
          "internalType": "uint256",
          "name": "",
          "type": "uint256"
        }
      ],
      "stateMutability": "view",
      "type": "function"
    },
    {
      "inputs": [
        {
          "internalType": "uint256",
          "name": "id",
          "type": "uint256"
        }
      ],
      "name": "refund",
      "outputs": [],
      "stateMutability": "nonpayable",
      "type": "function"
    },
    {
      "inputs": [
        {
          "internalType": "uint256",
          "name": "id",
          "type": "uint256"
        }
      ],
      "name": "releaseFunds",
      "outputs": [],
      "stateMutability": "nonpayable",
      "type": "function"
    },
    {
      "inputs": [],
      "name": "reputation",
      "outputs": [
        {
          "internalType": "contract TriSphereReputation",
          "name": "",
          "type": "address"
        }
      ],
      "stateMutability": "view",
      "type": "function"
    },
    {
      "inputs": [],
      "name": "treasury",
      "outputs": [
        {
          "internalType": "contract TriSphereTreasury",
          "name": "",
          "type": "address"
        }
      ],
      "stateMutability": "view",
      "type": "function"
    }
  ],
  "bytecode": "0x60c060405234801561001057600080fd5b506040516200141438038062001414833981016040819052610031916100c3565b60017f9b779b17422d0df92223018b32b4d1fa46e071723d6817e2486d003becc55f00556001600160a01b038316158061007257506001600160a01b038216155b156100905760405163e6c4247b60e01b815260040160405180910390fd5b6001600160a01b03928316608052911660a052600055610106565b6001600160a01b03811681146100c057600080fd5b50565b6000806000606084860312156100d857600080fd5b83516100e3816100ab565b60208501519093506100f4816100ab565b80925050604084015190509250925092565b60805160a0516112c56200014f600039600081816101a10152818161068a015281816107310152610ba801526000818161013c015281816105bd01526105fe01526112c56000f3fe608060405234801561001057600080fd5b50600436106100a95760003560e01c806361b8ce8c1161007157806361b8ce8c1461012e57806361d027b3146101375780637be87b9e14610176578063c438b40f14610189578063c52164c61461019c578063c9c31af5146101c357600080fd5b8063012f52ee146100ae57806322dcd13e146100dc578063278ecde1146100f357806340e58ee5146101085780634d68282f1461011b575b600080fd5b6100c16100bc366004610eba565b6101d6565b6040516100d396959493929190610f0b565b60405180910390f35b6100e560005481565b6040519081526020016100d3565b610106610101366004610eba565b6102a8565b005b610106610116366004610eba565b6103f2565b610106610129366004610eba565b6104b0565b6100e560015481565b61015e7f000000000000000000000000000000000000000000000000000000000000000081565b6040516001600160a01b0390911681526020016100d3565b6100e5610184366004610fb0565b610827565b610106610197366004610eba565b610a1c565b61015e7f000000000000000000000000000000000000000000000000000000000000000081565b6101066101d1366004610eba565b610adb565b6002602081905260009182526040909120805460018201549282015460038301546004840180546001600160a01b03948516968516959490931693919261021c9061104b565b80601f01602080910402602001604051908101604052809291908181526020018280546102489061104b565b80156102955780601f1061026a57610100808354040283529160200191610295565b820191906000526020600020905b81548152906001019060200180831161027857829003601f168201915b5050506005909301549192505060ff1686565b6102b0610c7d565b600081815260026020526040902080546001600160a01b031633146102ef57604051637e65d0e560e01b81523360048201526024015b60405180910390fd5b600160058083015460ff169081111561030a5761030a610ed3565b141580156103315750600260058083015460ff169081111561032e5761032e610ed3565b14155b1561035b57600581015460405163f924664d60e01b81526102e69160ff1690600190600401611085565b60058101805460ff1916600417905580546003820154600283015461038e926001600160a01b0391821692911690610c99565b805460038201546040519081526001600160a01b039091169083907feac97bc1917fcedc984e3d0671d4e83b359890323d5d1c2de32b28d17c356ced906020015b60405180910390a3506103ef600160008051602061127083398151915255565b50565b600081815260026020526040902080546001600160a01b0316331461042c57604051637e65d0e560e01b81523360048201526024016102e6565b600060058083015460ff169081111561044757610447610ed3565b1461047157600581015460405163f924664d60e01b81526102e69160ff1690600090600401611085565b6005818101805460ff1916909117905560405182907f0d977c6b1a383ac5ce532b4a668d0ef9ad38478e1a5ff28abb221f4b682b264390600090a25050565b6104b8610c7d565b600081815260026020526040902080546001600160a01b031633146104f257604051637e65d0e560e01b81523360048201526024016102e6565b600260058083015460ff169081111561050d5761050d610ed3565b1461053757600581015460405163f924664d60e01b81526102e69160ff1690600290600401611085565b6005810180546003919060ff191660018302179055506000612710600054836003015461056491906110bd565b61056e91906110da565b9050600081836003015461058291906110fc565b600284015460018501549192506001600160a01b03908116916105a89183911684610c99565b821561066e576105e26001600160a01b0382167f000000000000000000000000000000000000000000000000000000000000000085610cd3565b6002840154604051630332c04560e41b81526001600160a01b037f000000000000000000000000000000000000000000000000000000000000000081169263332c04509261063b92919091169087908a9060040161110f565b600060405180830381600087803b15801561065557600080fd5b505af1158015610669573d6000803e3d6000fd5b505050505b6001840154604051635699c99b60e11b81526001600160a01b037f000000000000000000000000000000000000000000000000000000000000000081169263ad339336926106e89291909116907f7005f6b93e9645dd52f85de6943cb091808c6572ce1794d247a7f80e34da10379060059060040161110f565b600060405180830381600087803b15801561070257600080fd5b505af1158015610716573d6000803e3d6000fd5b50508554604051635699c99b60e11b81526001600160a01b037f00000000000000000000000000000000000000000000000000000000000000008116945063ad339336935061078e9216907f7005f6b93e9645dd52f85de6943cb091808c6572ce1794d247a7f80e34da10379060029060040161110f565b600060405180830381600087803b1580156107a857600080fd5b505af11580156107bc573d6000803e3d6000fd5b50505050600184015460408051848152602081018690526001600160a01b039092169187917f93e901cc5aea20ea9655887d9290a3215a5b3999c024812f4e4b749f7534349c910160405180910390a3505050506103ef600160008051602061127083398151915255565b60006001600160a01b038616158061084657506001600160a01b038516155b806108595750336001600160a01b038716145b156108775760405163e6c4247b60e01b815260040160405180910390fd5b836000036108985760405163162908e360e11b815260040160405180910390fd5b600180549060006108a883611130565b9190505590506040518060c00160405280336001600160a01b03168152602001876001600160a01b03168152602001866001600160a01b0316815260200185815260200184848080601f016020809104026020016040519081016040528093929190818152602001838380828437600092018290525093855250505060209182018190528381526002808352604091829020845181546001600160a01b03199081166001600160a01b039283161783559486015160018301805487169183169190911790559285015191810180549094169190921617909155606082015160038201556080820151600482019061099f90826111af565b5060a08201518160050160006101000a81548160ff021916908360058111156109ca576109ca610ed3565b0217905550506040518581526001600160a01b0388169150339083907f9405ad0a6208539879349284d71265479b1623846f70303da1f9890d6e8c10a79060200160405180910390a495945050505050565b600081815260026020526040902080546001600160a01b03163314610a5657604051637e65d0e560e01b81523360048201526024016102e6565b600160058083015460ff1690811115610a7157610a71610ed3565b14610a9b57600581015460405163f924664d60e01b81526102e69160ff1690600190600401611085565b60058101805460ff19166002179055604051339083907f553edf5d6a50b30b5e1faa5428a9962e9b3af648e5ab3791bf7e79ccb10f7f5590600090a35050565b610ae3610c7d565b600081815260026020526040902080546001600160a01b03163314610b1d57604051637e65d0e560e01b81523360048201526024016102e6565b600060058083015460ff1690811115610b3857610b38610ed3565b14610b6257600581015460405163f924664d60e01b81526102e69160ff1690600090600401611085565b60038101546002820154610b85916001600160a01b039091169033903090610d27565b60058101805460ff191660019081179091558154604051635699c99b60e11b81527f00000000000000000000000000000000000000000000000000000000000000006001600160a01b039081169363ad33933693610c0b939216917f09c980bbfb021fda568981feea8159c3f6f54605dc51d3ff0b678cc89b21de50919060040161110f565b600060405180830381600087803b158015610c2557600080fd5b505af1158015610c39573d6000803e3d6000fd5b50505050336001600160a01b0316827f4a2cd88ec7a748d5b20b3512d7249c67745777b219009075c745923684e9653d83600301546040516103cf91815260200190565b610c85610d63565b600260008051602061127083398151915255565b610ca68383836001610d95565b610cce57604051635274afe760e01b81526001600160a01b03841660048201526024016102e6565b505050565b610ce08383836000610dfb565b610cce57610cf2838360006001610dfb565b610d1a57604051635274afe760e01b81526001600160a01b03841660048201526024016102e6565b610ca68383836001610dfb565b610d35848484846001610e48565b610d5d57604051635274afe760e01b81526001600160a01b03851660048201526024016102e6565b50505050565b60008051602061127083398151915254600203610d9357604051633ee5aeb560e01b815260040160405180910390fd5b565b60405163a9059cbb60e01b60008181526001600160a01b038616600452602485905291602083604481808b5af192506001600051148316610def578383151615610de2573d6000823e3d81fd5b6000873b113d1516831692505b60405250949350505050565b60405163095ea7b360e01b60008181526001600160a01b038616600452602485905291602083604481808b5af192506001600051148316610def578383151615610de2573d6000823e3d81fd5b6040516323b872dd60e01b60008181526001600160a01b038781166004528616602452604485905291602083606481808c5af192506001600051148316610ea8578383151615610e9b573d6000823e3d81fd5b6000883b113d1516831692505b60405250600060605295945050505050565b600060208284031215610ecc57600080fd5b5035919050565b634e487b7160e01b600052602160045260246000fd5b60068110610f0757634e487b7160e01b600052602160045260246000fd5b9052565b600060018060a01b03808916835260208189166020850152818816604085015286606085015260c06080850152855191508160c085015260005b82811015610f615786810182015185820160e001528101610f45565b5050600060e0828501015260e0601f19601f830116840101915050610f8960a0830184610ee9565b979650505050505050565b80356001600160a01b0381168114610fab57600080fd5b919050565b600080600080600060808688031215610fc857600080fd5b610fd186610f94565b9450610fdf60208701610f94565b935060408601359250606086013567ffffffffffffffff8082111561100357600080fd5b818801915088601f83011261101757600080fd5b81358181111561102657600080fd5b89602082850101111561103857600080fd5b9699959850939650602001949392505050565b600181811c9082168061105f57607f821691505b60208210810361107f57634e487b7160e01b600052602260045260246000fd5b50919050565b604081016110938285610ee9565b6110a06020830184610ee9565b9392505050565b634e487b7160e01b600052601160045260246000fd5b80820281158282048414176110d4576110d46110a7565b92915050565b6000826110f757634e487b7160e01b600052601260045260246000fd5b500490565b818103818111156110d4576110d46110a7565b6001600160a01b039390931683526020830191909152604082015260600190565b600060018201611142576111426110a7565b5060010190565b634e487b7160e01b600052604160045260246000fd5b601f821115610cce576000816000526020600020601f850160051c810160208610156111885750805b601f850160051c820191505b818110156111a757828155600101611194565b505050505050565b815167ffffffffffffffff8111156111c9576111c9611149565b6111dd816111d7845461104b565b8461115f565b602080601f83116001811461121257600084156111fa5750858301515b600019600386901b1c1916600185901b1785556111a7565b600085815260208120601f198616915b8281101561124157888601518255948401946001909101908401611222565b508582101561125f5787850151600019600388901b60f8161c191681555b5050505050600190811b0190555056fe9b779b17422d0df92223018b32b4d1fa46e071723d6817e2486d003becc55f00a26469706673582212204b09f33dcea73f62c4369273227c7f8a06b2b0c67add42077f4cb24edb0ea38c64736f6c63430008180033",
  "linkReferences": {},
  "deployedLinkReferences": {}
}