{"src/PaymentEscrow.sol":{"PaymentEscrow":{"abi":[{"inputs":[{"internalType":"contract TriSphereTreasury","name":"_treasury","type":"address"},{"internalType":"contract TriSphereReputation","name":"_reputation","type":"address"},{"internalType":"uint256","name":"_platformFeeBps","type":"uint256"}],"stateMutability":"nonpayable","type":"constructor"},{"inputs":[],"name":"InvalidAddress","type":"error"},{"inputs":[],"name":"InvalidAmount","type":"error"},{"inputs":[{"internalType":"enum PaymentEscrow.Status","name":"current","type":"uint8"},{"internalType":"enum PaymentEscrow.Status","name":"required","type":"uint8"}],"name":"InvalidStatus","type":"error"},{"inputs":[{"internalType":"address","name":"caller","type":"address"}],"name":"NotParticipant","type":"error"},{"inputs":[],"name":"ReentrancyGuardReentrantCall","type":"error"},{"inputs":[{"internalType":"address","name":"token","type":"address"}],"name":"SafeERC20FailedOperation","type":"error"},{"anonymous":false,"inputs":[{"indexed":true,"internalType":"uint256","name":"id","type":"uint256"}],"name":"EscrowCancelled","type":"event"},{"anonymous":false,"inputs":[{"indexed":true,"internalType":"uint256","name":"id","type":"uint256"},{"indexed":true,"internalType":"address","name":"payer","type":"address"},{"indexed":true,"internalType":"address","name":"payee","type":"address"},{"indexed":false,"internalType":"uint256","name":"amount","type":"uint256"}],"name":"EscrowCreated","type":"event"},{"anonymous":false,"inputs":[{"indexed":true,"internalType":"uint256","name":"id","type":"uint256"},{"indexed":true,"internalType":"address","name":"payer","type":"address"},{"indexed":false,"internalType":"uint256","name":"amount","type":"uint256"}],"name":"EscrowFunded","type":"event"},{"anonymous":false,"inputs":[{"indexed":true,"internalType":"uint256","name":"id","type":"uint256"},{"indexed":true,"internalType":"address","name":"payer","type":"address"},{"indexed":false,"internalType":"uint256","name":"amount","type":"uint256"}],"name":"EscrowRefunded","type":"event"},{"anonymous":false,"inputs":[{"indexed":true,"internalType":"uint256","name":"id","type":"uint256"},{"indexed":true,"internalType":"address","name":"payee","type":"address"},{"indexed":false,"internalType":"uint256","name":"payeeAmount","type":"uint256"},{"indexed":false,"internalType":"uint256","name":"feeAmount","type":"uint256"}],"name":"FundsReleased","type":"event"},{"anonymous":false,"inputs":[{"indexed":true,"internalType":"uint256","name":"id","type":"uint256"},{"indexed":true,"internalType":"address","name":"payer","type":"address"}],"name":"MilestoneApproved","type":"event"},{"inputs":[{"internalType":"uint256","name":"id","type":"uint256"}],"name":"approveMilestone","outputs":[],"stateMutability":"nonpayable","type":"function"},{"inputs":[{"internalType":"uint256","name":"id","type":"uint256"}],"name":"cancel","outputs":[],"stateMutability":"nonpayable","type":"function"},{"inputs":[{"internalType":"address","name":"payee","type":"address"},{"internalType":"address","name":"token","type":"address"},{"internalType":"uint256","name":"amount","type":"uint256"},{"internalType":"string","name":"description","type":"string"}],"name":"createEscrow","outputs":[{"internalType":"uint256","name":"id","type":"uint256"}],"stateMutability":"nonpayable","type":"function"},{"inputs":[{"internalType":"uint256","name":"","type":"uint256"}],"name":"escrows","outputs":[{"internalType":"address","name":"payer","type":"address"},{"internalType":"address","name":"payee","type":"address"},{"internalType":"address","name":"token","type":"address"},{"internalType":"uint256","name":"amount","type":"uint256"},{"internalType":"string","name":"description","type":"string"},{"internalType":"enum PaymentEscrow.Status","name":"status","type":"uint8"}],"stateMutability":"view","type":"function"},{"inputs":[{"internalType":"uint256","name":"id","type":"uint256"}],"name":"fundEscrow","outputs":[],"stateMutability":"nonpayable","type":"function"},{"inputs":[],"name":"nextId","outputs":[{"internalType":"uint256","name":"","type":"uint256"}],"stateMutability":"view","type":"function"},{"inputs":[],"name":"platformFeeBps","outputs":[{"internalType":"uint256","name":"","type":"uint256"}],"stateMutability":"view","type":"function"},{"inputs":[{"internalType":"uint256","name":"id","type":"uint256"}],"name":"refund","outputs":[],"stateMutability":"nonpayable","type":"function"},{"inputs":[{"internalType":"uint256","name":"id","type":"uint256"}],"name":"releaseFunds","outputs":[],"stateMutability":"nonpayable","type":"function"},{"inputs":[],"name":"reputation","outputs":[{"internalType":"contract TriSphereReputation","name":"","type":"address"}],"stateMutability":"view","type":"function"},{"inputs":[],"name":"treasury","outputs":[{"internalType":"contract TriSphereTreasury","name":"","type":"address"}],"stateMutability":"view","type":"function"}],"evm":{"bytecode":{"linkReferences":{},"object":"60c060405234801561001057600080fd5b506040516200141438038062001414833981016040819052610031916100c3565b60017f9b779b17422d0df92223018b32b4d1fa46e071723d6817e2486d003becc55f00556001600160a01b038316158061007257506001600160a01b038216155b156100905760405163e6c4247b60e01b815260040160405180910390fd5b6001600160a01b03928316608052911660a052600055610106565b6001600160a01b03811681146100c057600080fd5b50565b6000806000606084860312156100d857600080fd5b83516100e3816100ab565b60208501519093506100f4816100ab565b80925050604084015190509250925092565b60805160a0516112c56200014f600039600081816101a10152818161068a015281816107310152610ba801526000818161013c015281816105bd01526105fe01526112c56000f3fe608060405234801561001057600080fd5b50600436106100a95760003560e01c806361b8ce8c1161007157806361b8ce8c1461012e57806361d027b3146101375780637be87b9e14610176578063c438b40f14610189578063c52164c61461019c578063c9c31af5146101c357600080fd5b8063012f52ee146100ae57806322dcd13e146100dc578063278ecde1146100f357806340e58ee5146101085780634d68282f1461011b575b600080fd5b6100c16100bc366004610eba565b6101d6565b6040516100d396959493929190610f0b565b60405180910390f35b6100e560005481565b6040519081526020016100d3565b610106610101366004610eba565b6102a8565b005b610106610116366004610eba565b6103f2565b610106610129366004610eba565b6104b0565b6100e560015481565b61015e7f000000000000000000000000000000000000000000000000000000000000000081565b6040516001600160a01b0390911681526020016100d3565b6100e5610184366004610fb0565b610827565b610106610197366004610eba565b610a1c565b61015e7f000000000000000000000000000000000000000000000000000000000000000081565b6101066101d1366004610eba565b610adb565b6002602081905260009182526040909120805460018201549282015460038301546004840180546001600160a01b03948516968516959490931693919261021c9061104b565b80601f01602080910402602001604051908101604052809291908181526020018280546102489061104b565b80156102955780601f1061026a57610100808354040283529160200191610295565b820191906000526020600020905b81548152906001019060200180831161027857829003601f168201915b5050506005909301549192505060ff1686565b6102b0610c7d565b600081815260026020526040902080546001600160a01b031633146102ef57604051637e65d0e560e01b81523360048201526024015b60405180910390fd5b600160058083015460ff169081111561030a5761030a610ed3565b141580156103315750600260058083015460ff169081111561032e5761032e610ed3565b14155b1561035b57600581015460405163f924664d60e01b81526102e69160ff1690600190600401611085565b60058101805460ff1916600417905580546003820154600283015461038e926001600160a01b0391821692911690610c99565b805460038201546040519081526001600160a01b039091169083907feac97bc1917fcedc984e3d0671d4e83b359890323d5d1c2de32b28d17c356ced906020015b60405180910390a3506103ef600160008051602061127083398151915255565b50565b600081815260026020526040902080546001600160a01b0316331461042c57604051637e65d0e560e01b81523360048201526024016102e6565b600060058083015460ff169081111561044757610447610ed3565b1461047157600581015460405163f924664d60e01b81526102e69160ff1690600090600401611085565b6005818101805460ff1916909117905560405182907f0d977c6b1a383ac5ce532b4a668d0ef9ad38478e1a5ff28abb221f4b682b264390600090a25050565b6104b8610c7d565b600081815260026020526040902080546001600160a01b031633146104f257604051637e65d0e560e01b81523360048201526024016102e6565b600260058083015460ff169081111561050d5761050d610ed3565b1461053757600581015460405163f924664d60e01b81526102e69160ff1690600290600401611085565b6005810180546003919060ff191660018302179055506000612710600054836003015461056491906110bd565b61056e91906110da565b9050600081836003015461058291906110fc565b600284015460018501549192506001600160a01b03908116916105a89183911684610c99565b821561066e576105e26001600160a01b0382167f000000000000000000000000000000000000000000000000000000000000000085610cd3565b6002840154604051630332c04560e41b81526001600160a01b037f000000000000000000000000000000000000000000000000000000000000000081169263332c04509261063b92919091169087908a9060040161110f565b600060405180830381600087803b15801561065557600080fd5b505af1158015610669573d6000803e3d6000fd5b505050505b6001840154604051635699c99b60e11b81526001600160a01b037f000000000000000000000000000000000000000000000000000000000000000081169263ad339336926106e89291909116907f7005f6b93e9645dd52f85de6943cb091808c6572ce1794d247a7f80e34da10379060059060040161110f565b600060405180830381600087803b15801561070257600080fd5b505af1158015610716573d6000803e3d6000fd5b50508554604051635699c99b60e11b81526001600160a01b037f00000000000000000000000000000000000000000000000000000000000000008116945063ad339336935061078e9216907f7005f6b93e9645dd52f85de6943cb091808c6572ce1794d247a7f80e34da10379060029060040161110f565b600060405180830381600087803b1580156107a857600080fd5b505af11580156107bc573d6000803e3d6000fd5b50505050600184015460408051848152602081018690526001600160a01b039092169187917f93e901cc5aea20ea9655887d9290a3215a5b3999c024812f4e4b749f7534349c910160405180910390a3505050506103ef600160008051602061127083398151915255565b60006001600160a01b038616158061084657506001600160a01b038516155b806108595750336001600160a01b038716145b156108775760405163e6c4247b60e01b815260040160405180910390fd5b836000036108985760405163162908e360e11b815260040160405180910390fd5b600180549060006108a883611130565b9190505590506040518060c00160405280336001600160a01b03168152602001876001600160a01b03168152602001866001600160a01b0316815260200185815260200184848080601f016020809104026020016040519081016040528093929190818152602001838380828437600092018290525093855250505060209182018190528381526002808352604091829020845181546001600160a01b03199081166001600160a01b039283161783559486015160018301805487169183169190911790559285015191810180549094169190921617909155606082015160038201556080820151600482019061099f90826111af565b5060a08201518160050160006101000a81548160ff021916908360058111156109ca576109ca610ed3565b0217905550506040518581526001600160a01b0388169150339083907f9405ad0a6208539879349284d71265479b1623846f70303da1f9890d6e8c10a79060200160405180910390a495945050505050565b600081815260026020526040902080546001600160a01b03163314610a5657604051637e65d0e560e01b81523360048201526024016102e6565b600160058083015460ff1690811115610a7157610a71610ed3565b14610a9b57600581015460405163f924664d60e01b81526102e69160ff1690600190600401611085565b60058101805460ff19166002179055604051339083907f553edf5d6a50b30b5e1faa5428a9962e9b3af648e5ab3791bf7e79ccb10f7f5590600090a35050565b610ae3610c7d565b600081815260026020526040902080546001600160a01b03163314610b1d57604051637e65d0e560e01b81523360048201526024016102e6565b600060058083015460ff1690811115610b3857610b38610ed3565b14610b6257600581015460405163f924664d60e01b81526102e69160ff1690600090600401611085565b60038101546002820154610b85916001600160a01b039091169033903090610d27565b60058101805460ff191660019081179091558154604051635699c99b60e11b81527f00000000000000000000000000000000000000000000000000000000000000006001600160a01b039081169363ad33933693610c0b939216917f09c980bbfb021fda568981feea8159c3f6f54605dc51d3ff0b678cc89b21de50919060040161110f565b600060405180830381600087803b158015610c2557600080fd5b505af1158015610c39573d6000803e3d6000fd5b50505050336001600160a01b0316827f4a2cd88ec7a748d5b20b3512d7249c67745777b219009075c745923684e9653d83600301546040516103cf91815260200190565b610c85610d63565b600260008051602061127083398151915255565b610ca68383836001610d95565b610cce57604051635274afe760e01b81526001600160a01b03841660048201526024016102e6565b505050565b610ce08383836000610dfb565b610cce57610cf2838360006001610dfb565b610d1a57604051635274afe760e01b81526001600160a01b03841660048201526024016102e6565b610ca68383836001610dfb565b610d35848484846001610e48565b610d5d57604051635274afe760e01b81526001600160a01b03851660048201526024016102e6565b50505050565b60008051602061127083398151915254600203610d9357604051633ee5aeb560e01b815260040160405180910390fd5b565b60405163a9059cbb60e01b60008181526001600160a01b038616600452602485905291602083604481808b5af192506001600051148316610def578383151615610de2573d6000823e3d81fd5b6000873b113d1516831692505b60405250949350505050565b60405163095ea7b360e01b60008181526001600160a01b038616600452602485905291602083604481808b5af192506001600051148316610def578383151615610de2573d6000823e3d81fd5b6040516323b872dd60e01b60008181526001600160a01b038781166004528616602452604485905291602083606481808c5af192506001600051148316610ea8578383151615610e9b573d6000823e3d81fd5b6000883b113d1516831692505b60405250600060605295945050505050565b600060208284031215610ecc57600080fd5b5035919050565b634e487b7160e01b600052602160045260246000fd5b60068110610f0757634e487b7160e01b600052602160045260246000fd5b9052565b600060018060a01b03808916835260208189166020850152818816604085015286606085015260c06080850152855191508160c085015260005b82811015610f615786810182015185820160e001528101610f45565b5050600060e0828501015260e0601f19601f830116840101915050610f8960a0830184610ee9565b979650505050505050565b80356001600160a01b0381168114610fab57600080fd5b919050565b600080600080600060808688031215610fc857600080fd5b610fd186610f94565b9450610fdf60208701610f94565b935060408601359250606086013567ffffffffffffffff8082111561100357600080fd5b818801915088601f83011261101757600080fd5b81358181111561102657600080fd5b89602082850101111561103857600080fd5b9699959850939650602001949392505050565b600181811c9082168061105f57607f821691505b60208210810361107f57634e487b7160e01b600052602260045260246000fd5b50919050565b604081016110938285610ee9565b6110a06020830184610ee9565b9392505050565b634e487b7160e01b600052601160045260246000fd5b80820281158282048414176110d4576110d46110a7565b92915050565b6000826110f757634e487b7160e01b600052601260045260246000fd5b500490565b818103818111156110d4576110d46110a7565b6001600160a01b039390931683526020830191909152604082015260600190565b600060018201611142576111426110a7565b5060010190565b634e487b7160e01b600052604160045260246000fd5b601f821115610cce576000816000526020600020601f850160051c810160208610156111885750805b601f850160051c820191505b818110156111a757828155600101611194565b505050505050565b815167ffffffffffffffff8111156111c9576111c9611149565b6111dd816111d7845461104b565b8461115f565b602080601f83116001811461121257600084156111fa5750858301515b600019600386901b1c1916600185901b1785556111a7565b600085815260208120601f198616915b8281101561124157888601518255948401946001909101908401611222565b508582101561125f5787850151600019600388901b60f8161c191681555b5050505050600190811b0190555056fe9b779b17422d0df92223018b32b4d1fa46e071723d6817e2486d003becc55f00a26469706673582212204b09f33dcea73f62c4369273227c7f8a06b2b0c67add42077f4cb24edb0ea38c64736f6c63430008180033","opcodes":"PUSH1 0xC0 PUSH1 0x40 MSTORE CALLVALUE DUP1 ISZERO PUSH2 0x10 JUMPI PUSH1 0x0 DUP1 REVERT JUMPDEST POP PUSH1 0x40 MLOAD PUSH3 0x1414 CODESIZE SUB DUP1 PUSH3 0x1414 DUP4 CODECOPY DUP2 ADD PUSH1 0x40 DUP2 SWAP1 MSTORE PUSH2 0x31 SWAP2 PUSH2 0xC3 JUMP JUMPDEST PUSH1 0x1 PUSH32 0x9B779B17422D0DF92223018B32B4D1FA46E071723D6817E2486D003BECC55F00 SSTORE PUSH1 0x1 PUSH1 0x1 PUSH1 0xA0 SHL SUB DUP4 AND ISZERO DUP1 PUSH2 0x72 JUMPI POP PUSH1 0x1 PUSH1 0x1 PUSH1 0xA0 SHL SUB DUP3 AND ISZERO JUMPDEST ISZERO PUSH2 0x90 JUMPI PUSH1 0x40 MLOAD PUSH4 0xE6C4247B PUSH1 0xE0 SHL DUP2 MSTORE PUSH1 0x4 ADD PUSH1 0x40 MLOAD DUP1 SWAP2 SUB SWAP1 REVERT JUMPDEST PUSH1 0x1 PUSH1 0x1 PUSH1 0xA0 SHL SUB SWAP3 DUP4 AND PUSH1 0x80 MSTORE SWAP2 AND PUSH1 0xA0 MSTORE PUSH1 0x0 SSTORE PUSH2 0x106 JUMP JUMPDEST PUSH1 0x1 PUSH1 0x1 PUSH1 0xA0 SHL SUB DUP2 AND DUP2 EQ PUSH2 0xC0 JUMPI PUSH1 0x0 DUP1 REVERT JUMPDEST POP JUMP JUMPDEST PUSH1 0x0 DUP1 PUSH1 0x0 PUSH1 0x60 DUP5 DUP7 SUB SLT ISZERO PUSH2 0xD8 JUMPI PUSH1 0x0 DUP1 REVERT JUMPDEST DUP4 MLOAD PUSH2 0xE3 DUP2 PUSH2 0xAB JUMP JUMPDEST PUSH1 0x20 DUP6 ADD MLOAD SWAP1 SWAP4 POP PUSH2 0xF4 DUP2 PUSH2 0xAB JUMP JUMPDEST DUP1 SWAP3 POP POP PUSH1 0x40 DUP5 ADD MLOAD SWAP1 POP SWAP3 POP SWAP3 POP SWAP3 JUMP JUMPDEST PUSH1 0x80 MLOAD PUSH1 0xA0 MLOAD PUSH2 0x12C5 PUSH3 0x14F PUSH1 0x0 CODECOPY PUSH1 0x0 DUP2 DUP2 PUSH2 0x1A1 ADD MSTORE DUP2 DUP2 PUSH2 0x68A ADD MSTORE DUP2 DUP2 PUSH2 0x731 ADD MSTORE PUSH2 0xBA8 ADD MSTORE PUSH1 0x0 DUP2 DUP2 PUSH2 0x13C ADD MSTORE DUP2 DUP2 PUSH2 0x5BD ADD MSTORE PUSH2 0x5FE ADD MSTORE PUSH2 0x12C5 PUSH1 0x0 RETURN INVALID PUSH1 0x80 PUSH1 0x40 MSTORE CALLVALUE DUP1 ISZERO PUSH2 0x10 JUMPI PUSH1 0x0 DUP1 REVERT JUMPDEST POP PUSH1 0x4 CALLDATASIZE LT PUSH2 0xA9 JUMPI PUSH1 0x0 CALLDATALOAD PUSH1 0xE0 SHR DUP1 PUSH4 0x61B8CE8C GT PUSH2 0x71 JUMPI DUP1 PUSH4 0x61B8CE8C EQ PUSH2 0x12E JUMPI DUP1 PUSH4 0x61D027B3 EQ PUSH2 0x137 JUMPI DUP1 PUSH4 0x7BE87B9E EQ PUSH2 0x176 JUMPI DUP1 PUSH4 0xC438B40F EQ PUSH2 0x189 JUMPI DUP1 PUSH4 0xC52164C6 EQ PUSH2 0x19C JUMPI DUP1 PUSH4 0xC9C31AF5 EQ PUSH2 0x1C3 JUMPI PUSH1 0x0 DUP1 REVERT JUMPDEST DUP1 PUSH4 0x12F52EE EQ PUSH2 0xAE JUMPI DUP1 PUSH4 0x22DCD13E EQ PUSH2 0xDC JUMPI DUP1 PUSH4 0x278ECDE1 EQ PUSH2 0xF3 JUMPI DUP1 PUSH4 0x40E58EE5 EQ PUSH2 0x108 JUMPI DUP1 PUSH4 0x4D68282F EQ PUSH2 0x11B JUMPI JUMPDEST PUSH1 0x0 DUP1 REVERT JUMPDEST PUSH2 0xC1 PUSH2 0xBC CALLDATASIZE PUSH1 0x4 PUSH2 0xEBA JUMP JUMPDEST PUSH2 0x1D6 JUMP JUMPDEST PUSH1 0x40 MLOAD PUSH2 0xD3 SWAP7 SWAP6 SWAP5 SWAP4 SWAP3 SWAP2 SWAP1 PUSH2 0xF0B JUMP JUMPDEST PUSH1 0x40 MLOAD DUP1 SWAP2 SUB SWAP1 RETURN JUMPDEST PUSH2 0xE5 PUSH1 0x0 SLOAD DUP2 JUMP JUMPDEST PUSH1 0x40 MLOAD SWAP1 DUP2 MSTORE PUSH1 0x20 ADD PUSH2 0xD3 JUMP JUMPDEST PUSH2 0x106 PUSH2 0x101 CALLDATASIZE PUSH1 0x4 PUSH2 0xEBA JUMP JUMPDEST PUSH2 0x2A8 JUMP JUMPDEST STOP JUMPDEST PUSH2 0x106 PUSH2 0x116 CALLDATASIZE PUSH1 0x4 PUSH2 0xEBA JUMP JUMPDEST PUSH2 0x3F2 JUMP JUMPDEST PUSH2 0x106 PUSH2 0x129 CALLDATASIZE PUSH1 0x4 PUSH2 0xEBA JUMP JUMPDEST PUSH2 0x4B0 JUMP JUMPDEST PUSH2 0xE5 PUSH1 0x1 SLOAD DUP2 JUMP JUMPDEST PUSH2 0x15E PUSH32 0x0 DUP2 JUMP JUMPDEST PUSH1 0x40 MLOAD PUSH1 0x1 PUSH1 0x1 PUSH1 0xA0 SHL SUB SWAP1 SWAP2 AND DUP2 MSTORE PUSH1 0x20 ADD PUSH2 0xD3 JUMP JUMPDEST PUSH2 0xE5 PUSH2 0x184 CALLDATASIZE PUSH1 0x4 PUSH2 0xFB0 JUMP JUMPDEST PUSH2 0x827 JUMP JUMPDEST PUSH2 0x106 PUSH2 0x197 CALLDATASIZE PUSH1 0x4 PUSH2 0xEBA JUMP JUMPDEST PUSH2 0xA1C JUMP JUMPDEST PUSH2 0x15E PUSH32 0x0 DUP2 JUMP JUMPDEST PUSH2 0x106 PUSH2 0x1D1 CALLDATASIZE PUSH1 0x4 PUSH2 0xEBA JUMP JUMPDEST PUSH2 0xADB JUMP JUMPDEST PUSH1 0x2 PUSH1 0x20 DUP2 SWAP1 MSTORE PUSH1 0x0 SWAP2 DUP3 MSTORE PUSH1 0x40 SWAP1 SWAP2 KECCAK256 DUP1 SLOAD PUSH1 0x1 DUP3 ADD SLOAD SWAP3 DUP3 ADD SLOAD PUSH1 0x3 DUP4 ADD SLOAD PUSH1 0x4 DUP5 ADD DUP1 SLOAD PUSH1 0x1 PUSH1 0x1 PUSH1 0xA0 SHL SUB SWAP5 DUP6 AND SWAP7 DUP6 AND SWAP6 SWAP5 SWAP1 SWAP4 AND SWAP4 SWAP2 SWAP3 PUSH2 0x21C SWAP1 PUSH2 0x104B JUMP JUMPDEST DUP1 PUSH1 0x1F ADD PUSH1 0x20 DUP1 SWAP2 DIV MUL PUSH1 0x20 ADD PUSH1 0x40 MLOAD SWAP1 DUP2 ADD PUSH1 0x40 MSTORE DUP1 SWAP3 SWAP2 SWAP1 DUP2 DUP2 MSTORE PUSH1 0x20 ADD DUP3 DUP1 SLOAD PUSH2 0x248 SWAP1 PUSH2 0x104B JUMP JUMPDEST DUP1 ISZERO PUSH2 0x295 JUMPI DUP1 PUSH1 0x1F LT PUSH2 0x26A JUMPI PUSH2 0x100 DUP1 DUP4 SLOAD DIV MUL DUP4 MSTORE SWAP2 PUSH1 0x20 ADD SWAP2 PUSH2 0x295 JUMP JUMPDEST DUP3 ADD SWAP2 SWAP1 PUSH1 0x0 MSTORE PUSH1 0x20 PUSH1 0x0 KECCAK256 SWAP1 JUMPDEST DUP2 SLOAD DUP2 MSTORE SWAP1 PUSH1 0x1 ADD SWAP1 PUSH1 0x20 ADD DUP1 DUP4 GT PUSH2 0x278 JUMPI DUP3 SWAP1 SUB PUSH1 0x1F AND DUP3 ADD SWAP2 JUMPDEST POP POP POP PUSH1 0x5 SWAP1 SWAP4 ADD SLOAD SWAP2 SWAP3 POP POP PUSH1 0xFF AND DUP7 JUMP JUMPDEST PUSH2 0x2B0 PUSH2 0xC7D JUMP JUMPDEST PUSH1 0x0 DUP2 DUP2 MSTORE PUSH1 0x2 PUSH1 0x20 MSTORE PUSH1 0x40 SWAP1 KECCAK256 DUP1 SLOAD PUSH1 0x1 PUSH1 0x1 PUSH1 0xA0 SHL SUB AND CALLER EQ PUSH2 0x2EF JUMPI PUSH1 0x40 MLOAD PUSH4 0x7E65D0E5 PUSH1 0xE0 SHL DUP2 MSTORE CALLER PUSH1 0x4 DUP3 ADD MSTORE PUSH1 0x24 ADD JUMPDEST PUSH1 0x40 MLOAD DUP1 SWAP2 SUB SWAP1 REVERT JUMPDEST PUSH1 0x1 PUSH1 0x5 DUP1 DUP4 ADD SLOAD PUSH1 0xFF AND SWAP1 DUP2 GT ISZERO PUSH2 0x30A JUMPI PUSH2 0x30A PUSH2 0xED3 JUMP JUMPDEST EQ ISZERO DUP1 ISZERO PUSH2 0x331 JUMPI POP PUSH1 0x2 PUSH1 0x5 DUP1 DUP4 ADD SLOAD PUSH1 0xFF AND SWAP1 DUP2 GT ISZERO PUSH2 0x32E JUMPI PUSH2 0x32E PUSH2 0xED3 JUMP JUMPDEST EQ ISZERO JUMPDEST ISZERO PUSH2 0x35B JUMPI PUSH1 0x5 DUP2 ADD SLOAD PUSH1 0x40 MLOAD PUSH4 0xF924664D PUSH1 0xE0 SHL DUP2 MSTORE PUSH2 0x2E6 SWAP2 PUSH1 0xFF AND SWAP1 PUSH1 0x1 SWAP1 PUSH1 0x4 ADD PUSH2 0x1085 JUMP JUMPDEST PUSH1 0x5 DUP2 ADD DUP1 SLOAD PUSH1 0xFF NOT AND PUSH1 0x4 OR SWAP1 SSTORE DUP1 SLOAD PUSH1 0x3 DUP3 ADD SLOAD PUSH1 0x2 DUP4 ADD SLOAD PUSH2 0x38E SWAP3 PUSH1 0x1 PUSH1 0x1 PUSH1 0xA0 SHL SUB SWAP2 DUP3 AND SWAP3 SWAP2 AND SWAP1 PUSH2 0xC99 JUMP JUMPDEST DUP1 SLOAD PUSH1 0x3 DUP3 ADD SLOAD PUSH1 0x40 MLOAD SWAP1 DUP2 MSTORE PUSH1 0x1 PUSH1 0x1 PUSH1 0xA0 SHL SUB SWAP1 SWAP2 AND SWAP1 DUP4 SWAP1 PUSH32 0xEAC97BC1917FCEDC984E3D0671D4E83B359890323D5D1C2DE32B28D17C356CED SWAP1 PUSH1 0x20 ADD JUMPDEST PUSH1 0x40 MLOAD DUP1 SWAP2 SUB SWAP1 LOG3 POP PUSH2 0x3EF PUSH1 0x1 PUSH1 0x0 DUP1 MLOAD PUSH1 0x20 PUSH2 0x1270 DUP4 CODECOPY DUP2 MLOAD SWAP2 MSTORE SSTORE JUMP JUMPDEST POP JUMP JUMPDEST PUSH1 0x0 DUP2 DUP2 MSTORE PUSH1 0x2 PUSH1 0x20 MSTORE PUSH1 0x40 SWAP1 KECCAK256 DUP1 SLOAD PUSH1 0x1 PUSH1 0x1 PUSH1 0xA0 SHL SUB AND CALLER EQ PUSH2 0x42C JUMPI PUSH1 0x40 MLOAD PUSH4 0x7E65D0E5 PUSH1 0xE0 SHL DUP2 MSTORE CALLER PUSH1 0x4 DUP3 ADD MSTORE PUSH1 0x24 ADD PUSH2 0x2E6 JUMP JUMPDEST PUSH1 0x0 PUSH1 0x5 DUP1 DUP4 ADD SLOAD PUSH1 0xFF AND SWAP1 DUP2 GT ISZERO PUSH2 0x447 JUMPI PUSH2 0x447 PUSH2 0xED3 JUMP JUMPDEST EQ PUSH2 0x471 JUMPI PUSH1 0x5 DUP2 ADD SLOAD PUSH1 0x40 MLOAD PUSH4 0xF924664D PUSH1 0xE0 SHL DUP2 MSTORE PUSH2 0x2E6 SWAP2 PUSH1 0xFF AND SWAP1 PUSH1 0x0 SWAP1 PUSH1 0x4 ADD PUSH2 0x1085 JUMP JUMPDEST PUSH1 0x5 DUP2 DUP2 ADD DUP1 SLOAD PUSH1 0xFF NOT AND SWAP1 SWAP2 OR SWAP1 SSTORE PUSH1 0x40 MLOAD DUP3 SWAP1 PUSH32 0xD977C6B1A383AC5CE532B4A668D0EF9AD38478E1A5FF28ABB221F4B682B2643 SWAP1 PUSH1 0x0 SWAP1 LOG2 POP POP JUMP JUMPDEST PUSH2 0x4B8 PUSH2 0xC7D JUMP JUMPDEST PUSH1 0x0 DUP2 DUP2 MSTORE PUSH1 0x2 PUSH1 0x20 MSTORE PUSH1 0x40 SWAP1 KECCAK256 DUP1 SLOAD PUSH1 0x1 PUSH1 0x1 PUSH1 0xA0 SHL SUB AND CALLER EQ PUSH2 0x4F2 JUMPI PUSH1 0x40 MLOAD PUSH4 0x7E65D0E5 PUSH1 0xE0 SHL DUP2 MSTORE CALLER PUSH1 0x4 DUP3 ADD MSTORE PUSH1 0x24 ADD PUSH2 0x2E6 JUMP JUMPDEST PUSH1 0x2 PUSH1 0x5 DUP1 DUP4 ADD SLOAD PUSH1 0xFF AND SWAP1 DUP2 GT ISZERO PUSH2 0x50D JUMPI PUSH2 0x50D PUSH2 0xED3 JUMP JUMPDEST EQ PUSH2 0x537 JUMPI PUSH1 0x5 DUP2 ADD SLOAD PUSH1 0x40 MLOAD PUSH4 0xF924664D PUSH1 0xE0 SHL DUP2 MSTORE PUSH2 0x2E6 SWAP2 PUSH1 0xFF AND SWAP1 PUSH1 0x2 SWAP1 PUSH1 0x4 ADD PUSH2 0x1085 JUMP JUMPDEST PUSH1 0x5 DUP2 ADD DUP1 SLOAD PUSH1 0x3 SWAP2 SWAP1 PUSH1 0xFF NOT AND PUSH1 0x1 DUP4 MUL OR SWAP1 SSTORE POP PUSH1 0x0 PUSH2 0x2710 PUSH1 0x0 SLOAD DUP4 PUSH1 0x3 ADD SLOAD PUSH2 0x564 SWAP2 SWAP1 PUSH2 0x10BD JUMP JUMPDEST PUSH2 0x56E SWAP2 SWAP1 PUSH2 0x10DA JUMP JUMPDEST SWAP1 POP PUSH1 0x0 DUP2 DUP4 PUSH1 0x3 ADD SLOAD PUSH2 0x582 SWAP2 SWAP1 PUSH2 0x10FC JUMP JUMPDEST PUSH1 0x2 DUP5 ADD SLOAD PUSH1 0x1 DUP6 ADD SLOAD SWAP2 SWAP3 POP PUSH1 0x1 PUSH1 0x1 PUSH1 0xA0 SHL SUB SWAP1 DUP2 AND SWAP2 PUSH2 0x5A8 SWAP2 DUP4 SWAP2 AND DUP5 PUSH2 0xC99 JUMP JUMPDEST DUP3 ISZERO PUSH2 0x66E JUMPI PUSH2 0x5E2 PUSH1 0x1 PUSH1 0x1 PUSH1 0xA0 SHL SUB DUP3 AND PUSH32 0x0 DUP6 PUSH2 0xCD3 JUMP JUMPDEST PUSH1 0x2 DUP5 ADD SLOAD PUSH1 0x40 MLOAD PUSH4 0x332C045 PUSH1 0xE4 SHL DUP2 MSTORE PUSH1 0x1 PUSH1 0x1 PUSH1 0xA0 SHL SUB PUSH32 0x0 DUP2 AND SWAP3 PUSH4 0x332C0450 SWAP3 PUSH2 0x63B SWAP3 SWAP2 SWAP1 SWAP2 AND SWAP1 DUP8 SWAP1 DUP11 SWAP1 PUSH1 0x4 ADD PUSH2 0x110F JUMP JUMPDEST PUSH1 0x0 PUSH1 0x40 MLOAD DUP1 DUP4 SUB DUP2 PUSH1 0x0 DUP8 DUP1 EXTCODESIZE ISZERO DUP1 ISZERO PUSH2 0x655 JUMPI PUSH1 0x0 DUP1 REVERT JUMPDEST POP GAS CALL ISZERO DUP1 ISZERO PUSH2 0x669 JUMPI RETURNDATASIZE PUSH1 0x0 DUP1 RETURNDATACOPY RETURNDATASIZE PUSH1 0x0 REVERT JUMPDEST POP POP POP POP JUMPDEST PUSH1 0x1 DUP5 ADD SLOAD PUSH1 0x40 MLOAD PUSH4 0x5699C99B PUSH1 0xE1 SHL DUP2 MSTORE PUSH1 0x1 PUSH1 0x1 PUSH1 0xA0 SHL SUB PUSH32 0x0 DUP2 AND SWAP3 PUSH4 0xAD339336 SWAP3 PUSH2 0x6E8 SWAP3 SWAP2 SWAP1 SWAP2 AND SWAP1 PUSH32 0x7005F6B93E9645DD52F85DE6943CB091808C6572CE1794D247A7F80E34DA1037 SWAP1 PUSH1 0x5 SWAP1 PUSH1 0x4 ADD PUSH2 0x110F JUMP JUMPDEST PUSH1 0x0 PUSH1 0x40 MLOAD DUP1 DUP4 SUB DUP2 PUSH1 0x0 DUP8 DUP1 EXTCODESIZE ISZERO DUP1 ISZERO PUSH2 0x702 JUMPI PUSH1 0x0 DUP1 REVERT JUMPDEST POP GAS CALL ISZERO DUP1 ISZERO PUSH2 0x716 JUMPI RETURNDATASIZE PUSH1 0x0 DUP1 RETURNDATACOPY RETURNDATASIZE PUSH1 0x0 REVERT JUMPDEST POP POP DUP6 SLOAD PUSH1 0x40 MLOAD PUSH4 0x5699C99B PUSH1 0xE1 SHL DUP2 MSTORE PUSH1 0x1 PUSH1 0x1 PUSH1 0xA0 SHL SUB PUSH32 0x0 DUP2 AND SWAP5 POP PUSH4 0xAD339336 SWAP4 POP PUSH2 0x78E SWAP3 AND SWAP1 PUSH32 0x7005F6B93E9645DD52F85DE6943CB091808C6572CE1794D247A7F80E34DA1037 SWAP1 PUSH1 0x2 SWAP1 PUSH1 0x4 ADD PUSH2 0x110F JUMP JUMPDEST PUSH1 0x0 PUSH1 0x40 MLOAD DUP1 DUP4 SUB DUP2 PUSH1 0x0 DUP8 DUP1 EXTCODESIZE ISZERO DUP1 ISZERO PUSH2 0x7A8 JUMPI PUSH1 0x0 DUP1 REVERT JUMPDEST POP GAS CALL ISZERO DUP1 ISZERO PUSH2 0x7BC JUMPI RETURNDATASIZE PUSH1 0x0 DUP1 RETURNDATACOPY RETURNDATASIZE PUSH1 0x0 REVERT JUMPDEST POP POP POP POP PUSH1 0x1 DUP5 ADD SLOAD PUSH1 0x40 DUP1 MLOAD DUP5 DUP2 MSTORE PUSH1 0x20 DUP2 ADD DUP7 SWAP1 MSTORE PUSH1 0x1 PUSH1 0x1 PUSH1 0xA0 SHL SUB SWAP1 SWAP3 AND SWAP2 DUP8 SWAP2 PUSH32 0x93E901CC5AEA20EA9655887D9290A3215A5B3999C024812F4E4B749F7534349C SWAP2 ADD PUSH1 0x40 MLOAD DUP1 SWAP2 SUB SWAP1 LOG3 POP POP POP POP PUSH2 0x3EF PUSH1 0x1 PUSH1 0x0 DUP1 MLOAD PUSH1 0x20 PUSH2 0x1270 DUP4 CODECOPY DUP2 MLOAD SWAP2 MSTORE SSTORE JUMP JUMPDEST PUSH1 0x0 PUSH1 0x1 PUSH1 0x1 PUSH1 0xA0 SHL SUB DUP7 AND ISZERO DUP1 PUSH2 0x846 JUMPI POP PUSH1 0x1 PUSH1 0x1 PUSH1 0xA0 SHL SUB DUP6 AND ISZERO JUMPDEST DUP1 PUSH2 0x859 JUMPI POP CALLER PUSH1 0x1 PUSH1 0x1 PUSH1 0xA0 SHL SUB DUP8 AND EQ JUMPDEST ISZERO PUSH2 0x877 JUMPI PUSH1 0x40 MLOAD PUSH4 0xE6C4247B PUSH1 0xE0 SHL DUP2 MSTORE PUSH1 0x4 ADD PUSH1 0x40 MLOAD DUP1 SWAP2 SUB SWAP1 REVERT JUMPDEST DUP4 PUSH1 0x0 SUB PUSH2 0x898 JUMPI PUSH1 0x40 MLOAD PUSH4 0x162908E3 PUSH1 0xE1 SHL DUP2 MSTORE PUSH1 0x4 ADD PUSH1 0x40 MLOAD DUP1 SWAP2 SUB SWAP1 REVERT JUMPDEST PUSH1 0x1 DUP1 SLOAD SWAP1 PUSH1 0x0 PUSH2 0x8A8 DUP4 PUSH2 0x1130 JUMP JUMPDEST SWAP2 SWAP1 POP SSTORE SWAP1 POP PUSH1 0x40 MLOAD DUP1 PUSH1 0xC0 ADD PUSH1 0x40 MSTORE DUP1 CALLER PUSH1 0x1 PUSH1 0x1 PUSH1 0xA0 SHL SUB AND DUP2 MSTORE PUSH1 0x20 ADD DUP8 PUSH1 0x1 PUSH1 0x1 PUSH1 0xA0 SHL SUB AND DUP2 MSTORE PUSH1 0x20 ADD DUP7 PUSH1 0x1 PUSH1 0x1 PUSH1 0xA0 SHL SUB AND DUP2 MSTORE PUSH1 0x20 ADD DUP6 DUP2 MSTORE PUSH1 0x20 ADD DUP5 DUP5 DUP1 DUP1 PUSH1 0x1F ADD PUSH1 0x20 DUP1 SWAP2 DIV MUL PUSH1 0x20 ADD PUSH1 0x40 MLOAD SWAP1 DUP2 ADD PUSH1 0x40 MSTORE DUP1 SWAP4 SWAP3 SWAP2 SWAP1 DUP2 DUP2 MSTORE PUSH1 0x20 ADD DUP4 DUP4 DUP1 DUP3 DUP5 CALLDATACOPY PUSH1 0x0 SWAP3 ADD DUP3 SWAP1 MSTORE POP SWAP4 DUP6 MSTORE POP POP POP PUSH1 0x20 SWAP2 DUP3 ADD DUP2 SWAP1 MSTORE DUP4 DUP2 MSTORE PUSH1 0x2 DUP1 DUP4 MSTORE PUSH1 0x40 SWAP2 DUP3 SWAP1 KECCAK256 DUP5 MLOAD DUP2 SLOAD PUSH1 0x1 PUSH1 0x1 PUSH1 0xA0 SHL SUB NOT SWAP1 DUP2 AND PUSH1 0x1 PUSH1 0x1 PUSH1 0xA0 SHL SUB SWAP3 DUP4 AND OR DUP4 SSTORE SWAP5 DUP7 ADD MLOAD PUSH1 0x1 DUP4 ADD DUP1 SLOAD DUP8 AND SWAP2 DUP4 AND SWAP2 SWAP1 SWAP2 OR SWAP1 SSTORE SWAP3 DUP6 ADD MLOAD SWAP2 DUP2 ADD DUP1 SLOAD SWAP1 SWAP5 AND SWAP2 SWAP1 SWAP3 AND OR SWAP1 SWAP2 SSTORE PUSH1 0x60 DUP3 ADD MLOAD PUSH1 0x3 DUP3 ADD SSTORE PUSH1 0x80 DUP3 ADD MLOAD PUSH1 0x4 DUP3 ADD SWAP1 PUSH2 0x99F SWAP1 DUP3 PUSH2 0x11AF JUMP JUMPDEST POP PUSH1 0xA0 DUP3 ADD MLOAD DUP2 PUSH1 0x5 ADD PUSH1 0x0 PUSH2 0x100 EXP DUP2 SLOAD DUP2 PUSH1 0xFF MUL NOT AND SWAP1 DUP4 PUSH1 0x5 DUP2 GT ISZERO PUSH2 0x9CA JUMPI PUSH2 0x9CA PUSH2 0xED3 JUMP JUMPDEST MUL OR SWAP1 SSTORE POP POP PUSH1 0x40 MLOAD DUP6 DUP2 MSTORE PUSH1 0x1 PUSH1 0x1 PUSH1 0xA0 SHL SUB DUP9 AND SWAP2 POP CALLER SWAP1 DUP4 SWAP1 PUSH32 0x9405AD0A6208539879349284D71265479B1623846F70303DA1F9890D6E8C10A7 SWAP1 PUSH1 0x20 ADD PUSH1 0x40 MLOAD DUP1 SWAP2 SUB SWAP1 LOG4 SWAP6 SWAP5 POP POP POP POP POP JUMP JUMPDEST PUSH1 0x0 DUP2 DUP2 MSTORE PUSH1 0x2 PUSH1 0x20 MSTORE PUSH1 0x40 SWAP1 KECCAK256 DUP1 SLOAD PUSH1 0x1 PUSH1 0x1 PUSH1 0xA0 SHL SUB AND CALLER EQ PUSH2 0xA56 JUMPI PUSH1 0x40 MLOAD PUSH4 0x7E65D0E5 PUSH1 0xE0 SHL DUP2 MSTORE CALLER PUSH1 0x4 DUP3 ADD MSTORE PUSH1 0x24 ADD PUSH2 0x2E6 JUMP JUMPDEST PUSH1 0x1 PUSH1 0x5 DUP1 DUP4 ADD SLOAD PUSH1 0xFF AND SWAP1 DUP2 GT ISZERO PUSH2 0xA71 JUMPI PUSH2 0xA71 PUSH2 0xED3 JUMP JUMPDEST EQ PUSH2 0xA9B JUMPI PUSH1 0x5 DUP2 ADD SLOAD PUSH1 0x40 MLOAD PUSH4 0xF924664D PUSH1 0xE0 SHL DUP2 MSTORE PUSH2 0x2E6 SWAP2 PUSH1 0xFF AND SWAP1 PUSH1 0x1 SWAP1 PUSH1 0x4 ADD PUSH2 0x1085 JUMP JUMPDEST PUSH1 0x5 DUP2 ADD DUP1 SLOAD PUSH1 0xFF NOT AND PUSH1 0x2 OR SWAP1 SSTORE PUSH1 0x40 MLOAD CALLER SWAP1 DUP4 SWAP1 PUSH32 0x553EDF5D6A50B30B5E1FAA5428A9962E9B3AF648E5AB3791BF7E79CCB10F7F55 SWAP1 PUSH1 0x0 SWAP1 LOG3 POP POP JUMP JUMPDEST PUSH2 0xAE3 PUSH2 0xC7D JUMP JUMPDEST PUSH1 0x0 DUP2 DUP2 MSTORE PUSH1 0x2 PUSH1 0x20 MSTORE PUSH1 0x40 SWAP1 KECCAK256 DUP1 SLOAD PUSH1 0x1 PUSH1 0x1 PUSH1 0xA0 SHL SUB AND CALLER EQ PUSH2 0xB1D JUMPI PUSH1 0x40 MLOAD PUSH4 0x7E65D0E5 PUSH1 0xE0 SHL DUP2 MSTORE CALLER PUSH1 0x4 DUP3 ADD MSTORE PUSH1 0x24 ADD PUSH2 0x2E6 JUMP JUMPDEST PUSH1 0x0 PUSH1 0x5 DUP1 DUP4 ADD SLOAD PUSH1 0xFF AND SWAP1 DUP2 GT ISZERO PUSH2 0xB38 JUMPI PUSH2 0xB38 PUSH2 0xED3 JUMP JUMPDEST EQ PUSH2 0xB62 JUMPI PUSH1 0x5 DUP2 ADD SLOAD PUSH1 0x40 MLOAD PUSH4 0xF924664D PUSH1 0xE0 SHL DUP2 MSTORE PUSH2 0x2E6 SWAP2 PUSH1 0xFF AND SWAP1 PUSH1 0x0 SWAP1 PUSH1 0x4 ADD PUSH2 0x1085 JUMP JUMPDEST PUSH1 0x3 DUP2 ADD SLOAD PUSH1 0x2 DUP3 ADD SLOAD PUSH2 0xB85 SWAP2 PUSH1 0x1 PUSH1 0x1 PUSH1 0xA0 SHL SUB SWAP1 SWAP2 AND SWAP1 CALLER SWAP1 ADDRESS SWAP1 PUSH2 0xD27 JUMP JUMPDEST PUSH1 0x5 DUP2 ADD DUP1 SLOAD PUSH1 0xFF NOT AND PUSH1 0x1 SWAP1 DUP2 OR SWAP1 SWAP2 SSTORE DUP2 SLOAD PUSH1 0x40 MLOAD PUSH4 0x5699C99B PUSH1 0xE1 SHL DUP2 MSTORE PUSH32 0x0 PUSH1 0x1 PUSH1 0x1 PUSH1 0xA0 SHL SUB SWAP1 DUP2 AND SWAP4 PUSH4 0xAD339336 SWAP4 PUSH2 0xC0B SWAP4 SWAP3 AND SWAP2 PUSH32 0x9C980BBFB021FDA568981FEEA8159C3F6F54605DC51D3FF0B678CC89B21DE50 SWAP2 SWAP1 PUSH1 0x4 ADD PUSH2 0x110F JUMP JUMPDEST PUSH1 0x0 PUSH1 0x40 MLOAD DUP1 DUP4 SUB DUP2 PUSH1 0x0 DUP8 DUP1 EXTCODESIZE ISZERO DUP1 ISZERO PUSH2 0xC25 JUMPI PUSH1 0x0 DUP1 REVERT JUMPDEST POP GAS CALL ISZERO DUP1 ISZERO PUSH2 0xC39 JUMPI RETURNDATASIZE PUSH1 0x0 DUP1 RETURNDATACOPY RETURNDATASIZE PUSH1 0x0 REVERT JUMPDEST POP POP POP POP CALLER PUSH1 0x1 PUSH1 0x1 PUSH1 0xA0 SHL SUB AND DUP3 PUSH32 0x4A2CD88EC7A748D5B20B3512D7249C67745777B219009075C745923684E9653D DUP4 PUSH1 0x3 ADD SLOAD PUSH1 0x40 MLOAD PUSH2 0x3CF SWAP2 DUP2 MSTORE PUSH1 0x20 ADD SWAP1 JUMP JUMPDEST PUSH2 0xC85 PUSH2 0xD63 JUMP JUMPDEST PUSH1 0x2 PUSH1 0x0 DUP1 MLOAD PUSH1 0x20 PUSH2 0x1270 DUP4 CODECOPY DUP2 MLOAD SWAP2 MSTORE SSTORE JUMP JUMPDEST PUSH2 0xCA6 DUP4 DUP4 DUP4 PUSH1 0x1 PUSH2 0xD95 JUMP JUMPDEST PUSH2 0xCCE JUMPI PUSH1 0x40 MLOAD PUSH4 0x5274AFE7 PUSH1 0xE0 SHL DUP2 MSTORE PUSH1 0x1 PUSH1 0x1 PUSH1 0xA0 SHL SUB DUP5 AND PUSH1 0x4 DUP3 ADD MSTORE PUSH1 0x24 ADD PUSH2 0x2E6 JUMP JUMPDEST POP POP POP JUMP JUMPDEST PUSH2 0xCE0 DUP4 DUP4 DUP4 PUSH1 0x0 PUSH2 0xDFB JUMP JUMPDEST PUSH2 0xCCE JUMPI PUSH2 0xCF2 DUP4 DUP4 PUSH1 0x0 PUSH1 0x1 PUSH2 0xDFB JUMP JUMPDEST PUSH2 0xD1A JUMPI PUSH1 0x40 MLOAD PUSH4 0x5274AFE7 PUSH1 0xE0 SHL DUP2 MSTORE PUSH1 0x1 PUSH1 0x1 PUSH1 0xA0 SHL SUB DUP5 AND PUSH1 0x4 DUP3 ADD MSTORE PUSH1 0x24 ADD PUSH2 0x2E6 JUMP JUMPDEST PUSH2 0xCA6 DUP4 DUP4 DUP4 PUSH1 0x1 PUSH2 0xDFB JUMP JUMPDEST PUSH2 0xD35 DUP5 DUP5 DUP5 DUP5 PUSH1 0x1 PUSH2 0xE48 JUMP JUMPDEST PUSH2 0xD5D JUMPI PUSH1 0x40 MLOAD PUSH4 0x5274AFE7 PUSH1 0xE0 SHL DUP2 MSTORE PUSH1 0x1 PUSH1 0x1 PUSH1 0xA0 SHL SUB DUP6 AND PUSH1 0x4 DUP3 ADD MSTORE PUSH1 0x24 ADD PUSH2 0x2E6 JUMP JUMPDEST POP POP POP POP JUMP JUMPDEST PUSH1 0x0 DUP1 MLOAD PUSH1 0x20 PUSH2 0x1270 DUP4 CODECOPY DUP2 MLOAD SWAP2 MSTORE SLOAD PUSH1 0x2 SUB PUSH2 0xD93 JUMPI PUSH1 0x40 MLOAD PUSH4 0x3EE5AEB5 PUSH1 0xE0 SHL DUP2 MSTORE PUSH1 0x4 ADD PUSH1 0x40 MLOAD DUP1 SWAP2 SUB SWAP1 REVERT JUMPDEST JUMP JUMPDEST PUSH1 0x40 MLOAD PUSH4 0xA9059CBB PUSH1 0xE0 SHL PUSH1 0x0 DUP2 DUP2 MSTORE PUSH1 0x1 PUSH1 0x1 PUSH1 0xA0 SHL SUB DUP7 AND PUSH1 0x4 MSTORE PUSH1 0x24 DUP6 SWAP1 MSTORE SWAP2 PUSH1 0x20 DUP4 PUSH1 0x44 DUP2 DUP1 DUP12 GAS CALL SWAP3 POP PUSH1 0x1 PUSH1 0x0 MLOAD EQ DUP4 AND PUSH2 0xDEF JUMPI DUP4 DUP4 ISZERO AND ISZERO PUSH2 0xDE2 JUMPI RETURNDATASIZE PUSH1 0x0 DUP3 RETURNDATACOPY RETURNDATASIZE DUP2 REVERT JUMPDEST PUSH1 0x0 DUP8 EXTCODESIZE GT RETURNDATASIZE ISZERO AND DUP4 AND SWAP3 POP JUMPDEST PUSH1 0x40 MSTORE POP SWAP5 SWAP4 POP POP POP POP JUMP JUMPDEST PUSH1 0x40 MLOAD PUSH4 0x95EA7B3 PUSH1 0xE0 SHL PUSH1 0x0 DUP2 DUP2 MSTORE PUSH1 0x1 PUSH1 0x1 PUSH1 0xA0 SHL SUB DUP7 AND PUSH1 0x4 MSTORE PUSH1 0x24 DUP6 SWAP1 MSTORE SWAP2 PUSH1 0x20 DUP4 PUSH1 0x44 DUP2 DUP1 DUP12 GAS CALL SWAP3 POP PUSH1 0x1 PUSH1 0x0 MLOAD EQ DUP4 AND PUSH2 0xDEF JUMPI DUP4 DUP4 ISZERO AND ISZERO PUSH2 0xDE2 JUMPI RETURNDATASIZE PUSH1 0x0 DUP3 RETURNDATACOPY RETURNDATASIZE DUP2 REVERT JUMPDEST PUSH1 0x40 MLOAD PUSH4 0x23B872DD PUSH1 0xE0 SHL PUSH1 0x0 DUP2 DUP2 MSTORE PUSH1 0x1 PUSH1 0x1 PUSH1 0xA0 SHL SUB DUP8 DUP2 AND PUSH1 0x4 MSTORE DUP7 AND PUSH1 0x24 MSTORE PUSH1 0x44 DUP6 SWAP1 MSTORE SWAP2 PUSH1 0x20 DUP4 PUSH1 0x64 DUP2 DUP1 DUP13 GAS CALL SWAP3 POP PUSH1 0x1 PUSH1 0x0 MLOAD EQ DUP4 AND PUSH2 0xEA8 JUMPI DUP4 DUP4 ISZERO AND ISZERO PUSH2 0xE9B JUMPI RETURNDATASIZE PUSH1 0x0 DUP3 RETURNDATACOPY RETURNDATASIZE DUP2 REVERT JUMPDEST PUSH1 0x0 DUP9 EXTCODESIZE GT RETURNDATASIZE ISZERO AND DUP4 AND SWAP3 POP JUMPDEST PUSH1 0x40 MSTORE POP PUSH1 0x0 PUSH1 0x60 MSTORE SWAP6 SWAP5 POP POP POP POP POP JUMP JUMPDEST PUSH1 0x0 PUSH1 0x20 DUP3 DUP5 SUB SLT ISZERO PUSH2 0xECC JUMPI PUSH1 0x0 DUP1 REVERT JUMPDEST POP CALLDATALOAD SWAP2 SWAP1 POP JUMP JUMPDEST PUSH4 0x4E487B71 PUSH1 0xE0 SHL PUSH1 0x0 MSTORE PUSH1 0x21 PUSH1 0x4 MSTORE PUSH1 0x24 PUSH1 0x0 REVERT JUMPDEST PUSH1 0x6 DUP2 LT PUSH2 0xF07 JUMPI PUSH4 0x4E487B71 PUSH1 0xE0 SHL PUSH1 0x0 MSTORE PUSH1 0x21 PUSH1 0x4 MSTORE PUSH1 0x24 PUSH1 0x0 REVERT JUMPDEST SWAP1 MSTORE JUMP JUMPDEST PUSH1 0x0 PUSH1 0x1 DUP1 PUSH1 0xA0 SHL SUB DUP1 DUP10 AND DUP4 MSTORE PUSH1 0x20 DUP2 DUP10 AND PUSH1 0x20 DUP6 ADD MSTORE DUP2 DUP9 AND PUSH1 0x40 DUP6 ADD MSTORE DUP7 PUSH1 0x60 DUP6 ADD MSTORE PUSH1 0xC0 PUSH1 0x80 DUP6 ADD MSTORE DUP6 MLOAD SWAP2 POP DUP2 PUSH1 0xC0 DUP6 ADD MSTORE PUSH1 0x0 JUMPDEST DUP3 DUP2 LT ISZERO PUSH2 0xF61 JUMPI DUP7 DUP2 ADD DUP3 ADD MLOAD DUP6 DUP3 ADD PUSH1 0xE0 ADD MSTORE DUP2 ADD PUSH2 0xF45 JUMP JUMPDEST POP POP PUSH1 0x0 PUSH1 0xE0 DUP3 DUP6 ADD ADD MSTORE PUSH1 0xE0 PUSH1 0x1F NOT PUSH1 0x1F DUP4 ADD AND DUP5 ADD ADD SWAP2 POP POP PUSH2 0xF89 PUSH1 0xA0 DUP4 ADD DUP5 PUSH2 0xEE9 JUMP JUMPDEST SWAP8 SWAP7 POP POP POP POP POP POP POP JUMP JUMPDEST DUP1 CALLDATALOAD PUSH1 0x1 PUSH1 0x1 PUSH1 0xA0 SHL SUB DUP2 AND DUP2 EQ PUSH2 0xFAB JUMPI PUSH1 0x0 DUP1 REVERT JUMPDEST SWAP2 SWAP1 POP JUMP JUMPDEST PUSH1 0x0 DUP1 PUSH1 0x0 DUP1 PUSH1 0x0 PUSH1 0x80 DUP7 DUP9 SUB SLT ISZERO PUSH2 0xFC8 JUMPI PUSH1 0x0 DUP1 REVERT JUMPDEST PUSH2 0xFD1 DUP7 PUSH2 0xF94 JUMP JUMPDEST SWAP5 POP PUSH2 0xFDF PUSH1 0x20 DUP8 ADD PUSH2 0xF94 JUMP JUMPDEST SWAP4 POP PUSH1 0x40 DUP7 ADD CALLDATALOAD SWAP3 POP PUSH1 0x60 DUP7 ADD CALLDATALOAD PUSH8 0xFFFFFFFFFFFFFFFF DUP1 DUP3 GT ISZERO PUSH2 0x1003 JUMPI PUSH1 0x0 DUP1 REVERT JUMPDEST DUP2 DUP9 ADD SWAP2 POP DUP9 PUSH1 0x1F DUP4 ADD SLT PUSH2 0x1017 JUMPI PUSH1 0x0 DUP1 REVERT JUMPDEST DUP2 CALLDATALOAD DUP2 DUP2 GT ISZERO PUSH2 0x1026 JUMPI PUSH1 0x0 DUP1 REVERT JUMPDEST DUP10 PUSH1 0x20 DUP3 DUP6 ADD ADD GT ISZERO PUSH2 0x1038 JUMPI PUSH1 0x0 DUP1 REVERT JUMPDEST SWAP7 SWAP10 SWAP6 SWAP9 POP SWAP4 SWAP7 POP PUSH1 0x20 ADD SWAP5 SWAP4 SWAP3 POP POP POP JUMP JUMPDEST PUSH1 0x1 DUP2 DUP2 SHR SWAP1 DUP3 AND DUP1 PUSH2 0x105F JUMPI PUSH1 0x7F DUP3 AND SWAP2 POP JUMPDEST PUSH1 0x20 DUP3 LT DUP2 SUB PUSH2 0x107F JUMPI PUSH4 0x4E487B71 PUSH1 0xE0 SHL PUSH1 0x0 MSTORE PUSH1 0x22 PUSH1 0x4 MSTORE PUSH1 0x24 PUSH1 0x0 REVERT JUMPDEST POP SWAP2 SWAP1 POP JUMP JUMPDEST PUSH1 0x40 DUP2 ADD PUSH2 0x1093 DUP3 DUP6 PUSH2 0xEE9 JUMP JUMPDEST PUSH2 0x10A0 PUSH1 0x20 DUP4 ADD DUP5 PUSH2 0xEE9 JUMP JUMPDEST SWAP4 SWAP3 POP POP POP JUMP JUMPDEST PUSH4 0x4E487B71 PUSH1 0xE0 SHL PUSH1 0x0 MSTORE PUSH1 0x11 PUSH1 0x4 MSTORE PUSH1 0x24 PUSH1 0x0 REVERT JUMPDEST DUP1 DUP3 MUL DUP2 ISZERO DUP3 DUP3 DIV DUP5 EQ OR PUSH2 0x10D4 JUMPI PUSH2 0x10D4 PUSH2 0x10A7 JUMP JUMPDEST SWAP3 SWAP2 POP POP JUMP JUMPDEST PUSH1 0x0 DUP3 PUSH2 0x10F7 JUMPI PUSH4 0x4E487B71 PUSH1 0xE0 SHL PUSH1 0x0 MSTORE PUSH1 0x12 PUSH1 0x4 MSTORE PUSH1 0x24 PUSH1 0x0 REVERT JUMPDEST POP DIV SWAP1 JUMP JUMPDEST DUP2 DUP2 SUB DUP2 DUP2 GT ISZERO PUSH2 0x10D4 JUMPI PUSH2 0x10D4 PUSH2 0x10A7 JUMP JUMPDEST PUSH1 0x1 PUSH1 0x1 PUSH1 0xA0 SHL SUB SWAP4 SWAP1 SWAP4 AND DUP4 MSTORE PUSH1 0x20 DUP4 ADD SWAP2 SWAP1 SWAP2 MSTORE PUSH1 0x40 DUP3 ADD MSTORE PUSH1 0x60 ADD SWAP1 JUMP JUMPDEST PUSH1 0x0 PUSH1 0x1 DUP3 ADD PUSH2 0x1142 JUMPI PUSH2 0x1142 PUSH2 0x10A7 JUMP JUMPDEST POP PUSH1 0x1 ADD SWAP1 JUMP JUMPDEST PUSH4 0x4E487B71 PUSH1 0xE0 SHL PUSH1 0x0 MSTORE PUSH1 0x41 PUSH1 0x4 MSTORE PUSH1 0x24 PUSH1 0x0 REVERT JUMPDEST PUSH1 0x1F DUP3 GT ISZERO PUSH2 0xCCE JUMPI PUSH1 0x0 DUP2 PUSH1 0x0 MSTORE PUSH1 0x20 PUSH1 0x0 KECCAK256 PUSH1 0x1F DUP6 ADD PUSH1 0x5 SHR DUP2 ADD PUSH1 0x20 DUP7 LT ISZERO PUSH2 0x1188 JUMPI POP DUP1 JUMPDEST PUSH1 0x1F DUP6 ADD PUSH1 0x5 SHR DUP3 ADD SWAP2 POP JUMPDEST DUP2 DUP2 LT ISZERO PUSH2 0x11A7 JUMPI DUP3 DUP2 SSTORE PUSH1 0x1 ADD PUSH2 0x1194 JUMP JUMPDEST POP POP POP POP POP POP JUMP JUMPDEST DUP2 MLOAD PUSH8 0xFFFFFFFFFFFFFFFF DUP2 GT ISZERO PUSH2 0x11C9 JUMPI PUSH2 0x11C9 PUSH2 0x1149 JUMP JUMPDEST PUSH2 0x11DD DUP2 PUSH2 0x11D7 DUP5 SLOAD PUSH2 0x104B JUMP JUMPDEST DUP5 PUSH2 0x115F JUMP JUMPDEST PUSH1 0x20 DUP1 PUSH1 0x1F DUP4 GT PUSH1 0x1 DUP2 EQ PUSH2 0x1212 JUMPI PUSH1 0x0 DUP5 ISZERO PUSH2 0x11FA JUMPI POP DUP6 DUP4 ADD MLOAD JUMPDEST PUSH1 0x0 NOT PUSH1 0x3 DUP7 SWAP1 SHL SHR NOT AND PUSH1 0x1 DUP6 SWAP1 SHL OR DUP6 SSTORE PUSH2 0x11A7 JUMP JUMPDEST PUSH1 0x0 DUP6 DUP2 MSTORE PUSH1 0x20 DUP2 KECCAK256 PUSH1 0x1F NOT DUP7 AND SWAP2 JUMPDEST DUP3 DUP2 LT ISZERO PUSH2 0x1241 JUMPI DUP9 DUP7 ADD MLOAD DUP3 SSTORE SWAP5 DUP5 ADD SWAP5 PUSH1 0x1 SWAP1 SWAP2 ADD SWAP1 DUP5 ADD PUSH2 0x1222 JUMP JUMPDEST POP DUP6 DUP3 LT ISZERO PUSH2 0x125F JUMPI DUP8 DUP6 ADD MLOAD PUSH1 0x0 NOT PUSH1 0x3 DUP9 SWAP1 SHL PUSH1 0xF8 AND SHR NOT AND DUP2 SSTORE JUMPDEST POP POP POP POP POP PUSH1 0x1 SWAP1 DUP2 SHL ADD SWAP1 SSTORE POP JUMP INVALID SWAP12 PUSH24 0x9B17422D0DF92223018B32B4D1FA46E071723D6817E2486D STOP EXTCODESIZE 0xEC 0xC5 PUSH0 STOP LOG2 PUSH5 0x6970667358 0x22 SLT KECCAK256 0x4B MULMOD RETURN RETURNDATASIZE 0xCE 0xA7 EXTCODEHASH PUSH3 0xC43692 PUSH20 0x227C7F8A06B2B0C67ADD42077F4CB24EDB0EA38C PUSH5 0x736F6C6343 STOP ADDMOD XOR STOP CALLER "},"methodIdentifiers":{"approveMilestone(uint256)":"c438b40f","cancel(uint256)":"40e58ee5","createEscrow(address,address,uint256,string)":"7be87b9e","escrows(uint256)":"012f52ee","fundEscrow(uint256)":"c9c31af5","nextId()":"61b8ce8c","platformFeeBps()":"22dcd13e","refund(uint256)":"278ecde1","releaseFunds(uint256)":"4d68282f","reputation()":"c52164c6","treasury()":"61d027b3"}}}}}